:020000040800F2
:100000006806002089010008230400081B0400087A
:100010001F04000843020008FD070008000000005C
:100020000000000000000000000000007D04000847
:1000300047020008000000002504000891050008A0
:10004000A3010008A3010008A3010008A301000800
:10005000A3010008A3010008A3010008A3010008F0
:10006000A3010008A3010008A3010008A3010008E0
:10007000A3010008A3010008A3010008A3010008D0
:10008000A3010008A3010008A3010008A3010008C0
:10009000A3010008A3010008A3010008A3010008B0
:1000A000A3010008A3010008A3010008A3010008A0
:1000B000A3010008A3010008A3010008A301000890
:1000C000A3010008A3010008A3010008A301000880
:1000D000A3010008A3010008A3010008A301000870
:1000E000A3010008A3010008A301000800F002F822
:1000F00000F03AF80AA090E8000C82448344AAF188
:100100000107DA4501D100F02FF8AFF2090EBAE885
:100110000F0013F0010F18BFFB1A43F0010318473B
:100120007007000090070000103A24BF78C878C11B
:10013000FAD8520724BF30C830C144BF04680C60ED
:10014000704700000023002400250026103A28BF35
:1001500078C1FBD8520728BF30C148BF0B60704739
:100160001FB51FBD10B510BD00F031F81146FFF7E7
:10017000F7FF00F07DFB00F04FF803B4FFF7F2FF4C
:1001800003BC00F057F800000948804709480047C1
:10019000FEE7FEE7FEE7FEE7FEE7FEE7FEE7FEE737
:1001A000FEE7FEE704480549054A064B7047000094
:1001B00095050008ED000008680000206806002092
:1001C000680200206802002070477047704775463B
:1001D00000F02CF8AE4605006946534620F00700B3
:1001E000854618B020B5FFF7DDFFBDE820404FF091
:1001F00000064FF000074FF000084FF0000B21F011
:100200000701AC46ACE8C009ACE8C009ACE8C009DD
:10021000ACE8C0098D46704710B50446AFF30080C6
:100220002046BDE81040FFF7A8BF00000048704717
:100230000800002001491820ABBEFEE7260002009E
:10024000704700BFFEE7704700B589B00121082064
:1002500000F0FAF80121042000F0E6F84FF4D8701D
:10026000ADF8200010208DF8230002208DF8220028
:1002700008A9224800F046F84FF41070ADF82000AD
:1002800018208DF8230003208DF8220008A91B48B0
:1002900000F038F80020ADF81A00ADF8160040F272
:1002A000E730ADF818004720ADF8140005A9144850
:1002B00000F052FA6020ADF804004FF4FA70ADF887
:1002C0000A000020ADF80C000120ADF8060001A9DD
:1002D0000B4800F0B7F901A9094800F0FFF9012126
:1002E000074800F087F90121054800F08FF9012146
:1002F000034800F097F909B000BD0000000C014070
:10030000000800402DE9F0410246002500260020AB
:1003100000230024002791F803C00CF00F0591F88A
:1003200003C00CF0100CBCF1000F03D091F802C018
:100330004CEA050591F800C0BCF1000F31D01468FB
:1003400000202BE04FF0010C0CFA00F3B1F800C0D4
:100350000CEA03069E4220D183004FF00F0C0CFAEA
:1003600003F7BC4305FA03FC4CEA040491F803C00C
:10037000BCF1280F06D14FF0010C0CFA00FCC2F8BA
:1003800014C00AE091F803C0BCF1480F05D14FF04A
:10039000010C0CFA00FCC2F810C0401C0828D1D394
:1003A0001460B1F800C0BCF1FF0F34DD54680020C8
:1003B0002EE000F1080C4FF0010808FA0CF3B1F838
:1003C00000C00CEA03069E4221D183004FF00F0CBF
:1003D0000CFA03F7BC4305FA03FC4CEA040491F859
:1003E00003C0BCF1280F05D100F1080C08FA0CF885
:1003F000C2F8148091F803C0BCF1480F07D100F196
:10040000080C4FF0010808FA0CF8C2F81080401CE4
:100410000828CED35460BDE8F08100BFFEE700BFDE
:10042000FEE770477047000029B1064AD2690243CF
:10043000044BDA6104E0034AD2698243014BDA617A
:10044000704700000010024029B1064A9269024339
:10045000044B9A6104E0034A92698243014B9A611A
:1004600070470000001002400348006881B201F4A8
:10047000F851080A7047000008080140704710B59D
:1004800000F002F810BD00000CB5002001900090B3
:100490003348006840F480303149086000BF30487C
:1004A000006800F4003000900198401C0190009812
:1004B00018B90198B0F5A06FF1D12948006800F48F
:1004C000003010B10120009001E000200090009861
:1004D000012843D12348006840F0100021490860FA
:1004E0000846006820F0030008600846006840F0F5
:1004F000020008601A484068194948600846406888
:1005000048600846406840F480604860084640689B
:1005100020F47C1048600846406840F4E8104860C9
:100520000846006840F08070086000BF0C48006812
:1005300000F000700028F9D00948406820F003005E
:10054000074948600846406840F00200486000BF24
:100550000348406800F00C000828F9D10CBD0000E9
:100560000010024000200240042808D14FF0E02192
:10057000096941F004014FF0E022116107E04FF0FA
:10058000E021096921F004014FF0E0221161704778
:100590007047000010B51348006840F00100114991
:1005A000086008464068104908400E4948600846FF
:1005B00000680E4908400B4908600846006820F4AE
:1005C000802008600846406820F4FE0048604FF430
:1005D0001F008860FFF753FF4FF000600449086078
:1005E00010BD0000001002400000FFF8FFFFF6FE03
:1005F00008ED00E021B1028842F08002028004E0B0
:1006000002884FF67F731A400280704721B102883A
:1006100042F00102028004E002884FF6FE731A40A5
:100620000280704731B1B0F8442042F40042A0F893
:10063000442005E0B0F84420C2F30E02A0F84420A4
:100640007047000070B5002400220023058C4FF68F
:10065000FE7635400584028C8388048B4FF68F75B7
:100660002C40B51E2C400D882C43751E2A400D8948
:100670002A434D882A43144DA8420BD0134DA8425B
:1006800008D0134DA84205D0124DA84202D0124DF9
:10069000A84213D14FF6F7752A404D892A434FF6E9
:1006A000FB752A408D882A434FF6FF652B404FF695
:1006B000FF552B408D892B43CD892B4383800483A9
:1006C000CD888586028470BD002C01400034014035
:1006D00000400140004401400048014070B5002244
:1006E00000230024058C4EF6FF7635400584038CEC
:1006F0008488828B48F6FF752A404FF6FF452A40D2
:100700000D884FF6FF7606EA05252A434DF6FF755C
:100710002B400D8906EA05352B434D8806EA053541
:100720002B430B4DA84202D00A4DA84208D14BF6EC
:10073000FF752C408D894FF6FF7606EA85152C4310
:1007400084808283CD88A0F84050038470BD00006F
:10075000002C014000340140002202881D4B9842C9
:100760000ED01D4B98420BD0B0F1804F08D01B4BE0
:10077000984205D01A4B984202D01A4B984204D1A5
:100780004FF68F731A404B881A43174B984207D085
:10079000164B984204D04FF6FF431A40CB881A43B9
:1007A00002808B8883850B8803850A4B98420BD087
:1007B000094B984208D00E4B984205D00D4B9842F9
:1007C00002D00D4B984201D10B7A0386012383821C
:1007D00070470000002C014000340140000400403C
:1007E00000080040000C00400010004000140040D1
:1007F00000400140004401400048014000BFFEE7C6
:1008000008B501210420FFF71FFE01211020FFF78A
:100810001BFE4FF4F850ADF8000004208DF80300E3
:1008200002208DF8020069460148FFF76BFD08BD04
:100830000008014010B504466FF00400FFF794FE75
:10084000E11704EB5171C1F3C701074A117010465B
:10085000007800EB4001C1EBC0104FF6FF7101EAD8
:10086000C0000249088010BD0200002004000020E2
:100870004820FFF7DFFFFFF7E7FCFFF7C1FF03E0CA
:10088000FFF7F2FD01490870FAE7000000000020C0
:10089000B00800080000002008000000280100083F
:1008A000B8080008080000206006000044010008A5
:0808B000000000000000000040
:04000005080000ED02
:00000001FF
