:020000040800F2
:1000000070240020E1010008FD190008F51900081E
:10001000F91900080115000821330008000000004C
:10002000000000000000000000000000392400086B
:10003000351500080000000001210008192F0008F4
:10004000FB010008FB010008FB010008FB010008A0
:10005000FB010008FB010008FB010008FB01000890
:1000600009160008FB010008FB010008FB0100085D
:10007000FB010008FB010008FB010008FB01000870
:10008000FB010008FB010008FB010008FB01000860
:10009000FB010008FB010008FB010008FB01000850
:1000A000FB010008FB010008FB010008FB01000840
:1000B000FB010008FB010008FB010008FB01000830
:1000C000FB010008FB010008FB010008FB01000820
:1000D000FB010008FB010008CD320008FB0100080D
:1000E000FB010008FB010008FB01000800F002F81A
:1000F00000F067F80AA090E8000C82448344AAF15B
:100100000107DA4501D100F05CF8AFF2090EBAE858
:100110000F0013F0010F18BFFB1A43F0010318473B
:1001200008560000285600000A444FF0000C10F852
:10013000013B13F0070408BF10F8014B1D1108BF65
:1001400010F8015B641E05D010F8016B641E01F805
:10015000016BF9D113F0080F1EBF10F8014BAD1C55
:100160000C1B09D16D1E58BF01F801CBFAD505E073
:1001700014F8016B01F8016B6D1EF9D59142D6D3CD
:10018000704700000023002400250026103A28BFF5
:1001900078C1FBD8520728BF30C148BF0B607047F9
:1001A000662903F08B86002070471FB500F038FBEE
:1001B00004000020002103F0A1FAE0601FBD10B58B
:1001C00010BD00F02DFC1146FFF7EFFF03F04EF9D4
:1001D00000F04BFC03B4FFF7F2FF03BC00F090FC0F
:1001E0000948804709480047FEE7FEE7FEE7FEE7CB
:1001F000FEE7FEE7FEE7FEE7FEE7FEE70448054907
:10020000054A064B704700001D2F0008ED0000084E
:10021000701E00207024002070200020702000201C
:100220000FB41CB5074B06AA7B446946009005989D
:1002300000F0DDFA0020694600F0ECFA1CBC5DF825
:1002400014FB0000E90500002DE9F05F8946044633
:100250004FF0000ADFF824B1FB44C0F820A020468C
:10026000E168884700287DD0252806D0D4E90121FF
:100270009047206A401C2062F1E700255F46204637
:10028000E16888472028064607DB312E05D2B819D9
:1002900010F8200C08B10543F1E7A80701D525F0B7
:1002A0000405C4F81CA00027C4F818A02A2E09D001
:1002B000304603F08FF838B304EB8708303EC8F8B7
:1002C000186019E059F8041B204604EB870291617D
:1002D000E1688847012F064618D1E069002820DA36
:1002E00025F020051DE0D8F8180000EB800006EB93
:1002F00040003038C8F818002046E16888470646B4
:1003000003F068F80028EED1012F0AD02E2E08D174
:100310002046E16888477F1C0646022F45F02005ED
:10032000C4DBA069002803DA404245F00105A06162
:10033000E80701D025F01005A6B1A6F14100192863
:1003400002D8203645F400654A46314620462560ED
:100350004D46FFF725FF60B1012807D0ED1D25F0C0
:10036000070000E007E000F1080978E705F104095B
:1003700075E730467AE7206ABDE8F09F2454000014
:1003800010B5431C02E010F8011B71B18107FAD1CE
:100390004FF0013202C88C1A8C4314EAC211F9D012
:1003A000C01A0A0603D0C01E10BDC01A10BD0A0430
:1003B00001D0801E10BD0902FCD0401E10BD704748
:1003C0007047704770472DE9FF4F0C461E464FF0AF
:1003D000FF378BB0D2E90001DDF860800A908A46D1
:1003E000C1F30A5505B93D46002108464FF000000B
:1003F000BAF1000F00F4400005DA00EB80004FF482
:10040000400101EA50004FEA9059B9F1010F00DDB7
:10041000B9460A9850EA4A000ED044F61050A5F2A8
:10042000FF3545432F14B8F1000F1ED07542291E29
:100430001EDDC9F100021CE0B8F1010F4FF0000011
:1004400001D0302103E0F24305E02154401CB042CA
:10045000FBDB30460022002121540B99C1F80880B3
:10046000C1E900200FB0BDE8F08FBD1B6D1CDEE7B9
:100470004A4600DA694206A800F05CFA06AB93E847
:10048000070003AB83E8070050460A9900F03EFBE3
:100490008DE80700A0F500501F3800900398002D4C
:1004A0000ADD42F21F014A460844002303A90390D3
:1004B000684600F0A7FD09E0A0F500504A461F3845
:1004C000002303A90390684600F0B1FD8DE8070002
:1004D0000004000C03D04FF0FF30410800E010464C
:1004E000B8F1000F03D00022009215461EE0751EE1
:1004F00005D400F099F9303262556D1EF9D5B34636
:100500000122084302D000227F1C04E0207830281A
:1005100001D100227F1E002A099784D01DE0112DF1
:1005200007DA00F081F9303262556D1C50EA0102A1
:10053000F5D1084302D00098C8B10EE00021681E32
:1005400005E0235C625C63542254401E491C8142D6
:10055000F7DBAB46A81B401E0990002004F80B00F7
:100560000B98099AC0F80880C0E9002B7AE7112699
:100570004FF0000857E72DE9F04F88460446D21D9A
:1005800022F0070191B0D1E90001CDE90A0102F0A2
:100590000DFF02460B98C00F01D02D2007E0206808
:1005A000810701D52B2002E0202101EAC000032AA7
:1005B000099001D0072A05DB03464146204600F09A
:1005C00079F90BE12078800601D5E06900E006208A
:1005D000B8F1650F814606D0B8F1660F18D0B8F1B2
:1005E000670F70D131E00020B9F1110F009001DBED
:1005F000112301E009F101030AAA01A90CA8FFF7E0
:10060000E2FEDDE90C70002609F10105834647E0B2
:1006100001204B4600904FF000470AAA01A90CA800
:10062000FFF7D1FEDDE90DB00C995D46002610B94B
:1006300009F101000D18B9EB050003D4C0F1FF3634
:1006400009F10105A5EB09002BE0B9F1010F01DA71
:100650004FF001090020B9F1110F0090484601DD6B
:10066000112300E003460AAA01A90CA8FFF7ABFE7C
:10067000DDE90C704D4600268346207800070AD439
:10068000AB4500DA5D4601A8012D04DD411911F8E2
:10069000011C302907D04F4502DA17F1040F04DAA4
:1006A000012082460FE06D1EEEE7002F02DCED1BFD
:1006B0003E4403E0781CA84200DD7D1CB81B00F11D
:1006C000010A4FF000472078000703D4AA4501DB58
:1006D0004FF0FF3A0021B7F1004F0DF143088DF8BC
:1006E000431024D002202B23002F01DA7F422D2338
:1006F0000A21021EA0F1010000DC5FB197FBF1FCB2
:1007000097FBF1F201FB1C7C17460CF1300C08F84A
:1007100001CDEEE7A8F1010003702188090501D59C
:10072000452100E06521A0F1010800F8011C0998AD
:100730000FA9A1EB0807FF1D00B10120411901EB32
:10074000EA70A1693844081A401EA0612078C006EA
:1007500002D42046AFF30080099828B1D4E90121E2
:100760009047206A401C20622078C00622D520468F
:10077000AFF300801EE0002E04DBB34502DD01A8CC
:10078000805D00E03020D4E901219047206A401CC0
:100790002062761CAAF101005FEA000A0AD100F08B
:1007A0003FF8C0680168405CD4E901219047206AA5
:1007B000401C2062281EA5F10105DCDC07E0D4E91D
:1007C000012118F8010B9047206A401C2062381E56
:1007D000A7F10107F3DC2046AFF30080032011B03E
:1007E00041E6000001694A1C02610878704700B5C3
:1007F0008FB0CDE901310021059105497944CDE95A
:10080000031011466846FFF71FFD0FB000BD000042
:10081000E5FFFFFF0A6802F8010B0A60704700005D
:10082000004870472C1E002030B5B0F10A024FEA94
:10083000900E71F100034EEA817EB0EB0E0061EB89
:1008400091014FEA101E4EEA017E10EB0E0041EBC3
:1008500011114FEA102E4EEA016E10EB0E0041EB23
:1008600011214FEA104E4EEA014E10EB0E0041EB03
:100870001141401841F100014FEAD00040EA4170B7
:100880004FEAD10110EB80054FEA810444EA9074ED
:1008900044EB01046D1944EB0404521BA3414FF0D7
:1008A000000348BF0A3200D530BD401C41F10001B1
:1008B00030BD00002DE9F0411F46044603260168C3
:1008C000072A01F4006004DB08B116A505E016A5AF
:1008D00003E008B115A500E015A521F01000206087
:1008E000A069C01EA0610FB1401EA0612046AFF3F9
:1008F00000804FB1D4E9012138469047206A401C5E
:100900002062C01C206206E0206AFAE7D4E90121D7
:1009100015F8010B9047761EF8D22046AFF3008001
:10092000BDE8F0814E414E006E616E00494E4600BA
:10093000696E66002DE9F047814616468AB0354853
:1009400078440DC88DE80D0032487844801C03AC13
:100950000DC884E80D0041F69B300844372190FB18
:10096000F1F290FBF1F5A5F1800501FB12041B3CAF
:1009700002D56442012000E00020DFF898A0804604
:100980000027FA44AAF1BE0A0EE0E0070AD0324678
:10099000684607EB470101230AEB810100F047FBA2
:1009A0008DE8070064107F1C002CEED1194F7F44A6
:1009B000AE3F19E0E80715D007EB04100DF1180A57
:1009C00090E80E008AE80E00C068F04201D1981944
:1009D00008903246012306A903A800F028FB03ABC8
:1009E00083E807006D10641C002DE3D14FF0010374
:1009F00032466946B8F1000F03A802D000F002FBAE
:100A000001E000F014FBC9E90001C9F808200AB0B0
:100A1000BDE8F087CC4D0000004870470C1E002058
:100A20007546FFF7F9FFAE4605006946534620F0CC
:100A30000700854618B020B5FFF7E0FBBDE8204071
:100A40004FF000064FF000074FF000084FF0000B8A
:100A500021F00701AC46ACE8C009ACE8C009ACE83D
:100A6000C009ACE8C0098D46704710B50446AFF325
:100A700000802046BDE81040FFF7ACBB4FF0013CC2
:100A800050F8042B51F8043B9A4221D1A2EB0C03FD
:100A9000934313EACC1317D150F8042B51F8043BBD
:100AA0009A4215D1A2EB0C03934313EACC130BD15A
:100AB00050F8042B51F8043B9A4209D1A2EB0C03E5
:100AC000934313EACC13DBD04FF00000704700BF14
:100AD000D01A01BAB1FA81F101F0180122FA01F03D
:100AE000CB40C1F12001DBB2C0B2C01A2CFA01F335
:100AF000D11A914311EAC311E6D170477047000043
:100B000001491820ABBEFEE7260002005FEA400C58
:100B100008BF91F0000F4FEA8C234FEAC12243EA4D
:100B200051514FEA1C5018BF00F5F0404FEA300019
:100B300018BF41F000415FEA6C5C00F02980BCF115
:100B4000FF3F08BF40F080407047130C06BF1204FF
:100B50004FF0100C4FF0000C130E04BF12020CF1FA
:100B6000080C130F04BF12010CF1040C930F04BF07
:100B700092000CF1020CD30F04BF52000CF1010CD7
:100B800011464FF00002A0F11F00A0EB0C007047CF
:100B900011F0004F08BF704731F000413FF4D5AF6E
:100BA0000B0C06BF09044FF0100C4FF0000C0B0E9D
:100BB00004BF09020CF1080C0B0F04BF09010CF172
:100BC000040C8B0F04BF89000CF1020CCB0F04BF87
:100BD00049000CF1010CCCF12003A0EB0C0022FA2F
:100BE00003F302FA0CF241EA030100F1010070473D
:100BF00020F07F4C80EA030023F07F47ACEB070333
:100C000003F57C5300F0004003F1FF032DE9804918
:100C10004FEA154B09B44FEA144325EA0B4E24EA78
:100C200003480FF2042606EB132749083E785FEAD3
:100C3000320203FB0667C7F5000707FB06F64FEA1B
:100C400054374FEAD64606F1020607FB066CCCF194
:100C5000005C4FEA1C472CEA074C07FB06F40CFB30
:100C600006F504EB15464FEA961634BF00204FF008
:100C700000404FEAD13706FB07FC4FEA1C4C0CFB47
:100C80000BF7D21B03FB0CF761EB07010CFB0EF714
:100C9000B0EB074072EB17420CFB08F734BFA2EB36
:100CA0000742B2EB074261EB17414FEA0C444FEAAF
:100CB000910706FB07FC4FEA1C4C0CFB0BF7B0EB53
:100CC000C74072EB573203FB0CF734BFA2EBC742AD
:100CD000B2EBC74261EB57310CFB0EF7B0EBC7002C
:100CE00072EB57720CFB08F734BFA2EBC702B2EBF2
:100CF000C70261EB5771039F4FEA816141EA92118C
:100D000004EBCC044FEAD1374FEA826206FB07FCC2
:100D100042EA90124FEA80604FEA1C4C0CFB0BF742
:100D2000D21B03FB0CF761EB07010CFB0EF7B0EBDA
:100D3000074072EB17420CFB08F734BFA2EB0742E7
:100D4000B2EB074261EB17414FEA8C554FEA91072E
:100D500004EB9C2406FB07FC4FEA1C4C0CFB0BF736
:100D6000B0EBC74072EB573203FB0CF734BFA2EB7A
:100D7000C742B2EBC74261EB57310CFB0EF7B0EB49
:100D8000C70072EB57720CFB08F734BFA2EBC70227
:100D9000B2EBC70261EB577115EB4C254FEA81614D
:100DA00041EA92114FEA82624FEAD13742EA901249
:100DB00006FB07FC44F100044FEA80604FEA1C4C3C
:100DC0000CFB0BF7D21B03FB0CF761EB07010CFBD1
:100DD0000EF7B0EB074072EB17420CFB08F734BF7D
:100DE000A2EB0742B2EB074261EB174115EB1C1572
:100DF0004FEA813141EA92414FEA823242EA90421F
:100E00004FEA80304FEA0C7644F1000448EA03438D
:100E10004EEA0B484FF0000EB2EB080C71EB0307E3
:100E200024BF624639464EEB0E0E4FF0000B001801
:100E3000524149414BEB0B0BB2EB080C71EB030732
:100E40007BF1000B24BF624639464EEB0E0E4FF08D
:100E5000000B0018524149414BEB0B0BB2EB080C55
:100E600071EB03077BF1000B24BF624639464EEB62
:100E70000E0E51EA020718BF46F0010616EB0E7679
:100E800055F1000254F1000103D5BDE88901BDE828
:100E90000088BDE88901BDE80048B619524141EB20
:100EA0000101A3F10103704780807F7E7D7C7B7A06
:100EB0007978777676757473727171706F6E6E6D06
:100EC0006C6C6B6A6A6968686766666564646363AC
:100ED00062616160605F5F5E5E5D5D5C5C5B5B5A32
:100EE0005A5959585857575656555555545453539F
:100EF00052525251515050504F4F4F4E4E4D4D4DFA
:100F00004C4C4C4B4B4B4A4A4A4949494848484744
:100F10004747474646464545454444444443434382
:100F20004342424242414141002B9C4630D477002B
:100F30002BD01CB54FEA370703B44FF010004FF029
:100F40001001BAF1000F06D0BCF1000FDCBF40F079
:100F5000080040F008014FF000000FBCBDE8104051
:100F60000BF1010BBBF1010F08BF5FEA170722BFAE
:100F700012F1010211F101014FF0004143F10003B0
:100F800000F0004043EA00007047F9D35708D0E76B
:100F900046EA064613F1400F4FEA16461FDD13F1ED
:100FA000200FDFBF16430A46002120335B42BED02C
:100FB000C3F1200746EA064602FA07F74FEA16464B
:100FC00046EA0706C3F1200722FA03F201FA07F7FF
:100FD00021FA03F14FF0000342EA0702A7E746EACD
:100FE000020646EA06464FEA164646EA0106BCBF36
:100FF00046EA0646360C4FF000034FF000024FF071
:10100000000194E72DE9804C9A46934670B491E82C
:10101000380007C831EA400C48BF34EA430C03D516
:10102000FFF7E6FDFFF780FFF0BCBDE8008C2DE97F
:10103000804C9A46934670B491E8380007C810F087
:10104000804F08BF13F0804F03D100F005F8FFF781
:101050006BFFF0BCBDE8008C20F07F4780EA030006
:1010600023F07F4C07EB0C03A3F57C5300F000400A
:10107000A3F1FE0392F0000F00F0B38095F0000F93
:1010800000F077802DE901494FEA11404FEA1446FC
:1010900021EA004800FB06FC24EA064708FB06F6A6
:1010A00007FB08F800FB07F718EB06484CEB164C5B
:1010B0004FEA124B18EB07484FEA15464CEB174026
:1010C00022EA0B4E0BFB06FC25EA06470EFB06F652
:1010D00007FB0EFE0BFB07F71EEB064E4CEB164C08
:1010E0004FF000061EEB074E4CEB174B18EB0B08AE
:1010F00040F1000018EB0E0B58EB000840F1000027
:101100008F1A4FF000013CBFC943661B14BFB5EBFB
:10111000040C00213CBFC943F61B4FEA17444EEABA
:101120008E0E27EA04454FEA1C4704FB07622CEAAF
:10113000074C05FB07F70CFB05F604FB0CFC16EB54
:10114000074642EB174216EB0C4642EB1C421BEBE8
:10115000060658EB0202414146EA9E0601D5BDE86B
:101160000189B619524141EB0101A3F10103BDE828
:1011700001894FEA14454FEA114724EA054621EA5E
:10118000074C05FB07F406FB07F70CFB06F105FB14
:101190000CFC11EB074144EB17444FEA124711EBEB
:1011A0000C4144EB1C4422EA074C05FB07F206FB0A
:1011B00007F70CFB06F605FB0CFC16EB074642EBAB
:1011C000174216EB0C4642EB1C456A1854F100011D
:1011D00048BF7047B619524141EB0101A3F1010329
:1011E000704795F0000F37D04FEA11424FEA14478D
:1011F00021EA024624EA074C02FB07F106FB07F747
:101200000CFB06F402FB0CFC14EB074441EB17410A
:101210004FEA154714EB0C4441EB1C4125EA074CFF
:1012200002FB07F506FB07F70CFB06F602FB0CFCBE
:1012300016EB074645EB174516EB0C4645EB1C42F3
:10124000121951F1000148BF7047B619524141EBE4
:101250000101A3F1010370474FEA14454FEA11471A
:1012600024EA054621EA074C05FB07F106FB07F7D0
:101270000CFB06F24FF0000605FB0CFC12EB0742DC
:1012800041EB174112EB0C4251EB1C4148BF704738
:10129000921841EB0101A3F10103704721B182686B
:1012A00042F00102826003E0826822F00102826063
:1012B0007047000010B504461248844208D101214D
:1012C000401500F04BFF0021601500F047FF17E0CC
:1012D0000D48844208D10121001500F03FFF002194
:1012E000201500F03BFF0BE00848844208D10121A3
:1012F000C80300F033FF00214FF4004000F02EFF40
:1013000010BD00000024014000280140003C0140C5
:10131000014600208A6802F004020AB1012000E0C0
:10132000002070470246002013680B400BB10120DB
:1013300000E000207047014600208A6802F00802A1
:101340000AB1012000E000207047000030B50246DD
:101350000020002350680F4C20400D790C6844EAAF
:1013600005242043506090680B4C2040D1E9025482
:101370002C434D7944EA450420439060D06A20F420
:1013800070000C7C641EE4B2234340EA0350D06238
:1013900030BD0000FFFEF0FFFDF7F1FFF0B50446A1
:1013A0000D4600200021092D11DDE068A5F10A0697
:1013B00006EB4607072606FA07F18843A5F10A0659
:1013C00006EB460603FA06F10843E0600CE02069EC
:1013D00005EB4507072606FA07F1884305EB4506A6
:1013E00003FA06F108432061072A0FDA606B561EE4
:1013F00006EB86071F2606FA07F18843561E06EB02
:10140000860605FA06F10843606322E00D2A0FDA2A
:10141000206BD61F06EB86071F2606FA07F18843C6
:10142000D61F06EB860605FA06F10843206310E096
:10143000E06AA2F10D0606EB86071F2606FA07F101
:101440008843A2F10D0606EB860605FA06F108436D
:10145000E062F0BD816841F008018160704721B110
:10146000826842F4A002826003E0826822F4A00253
:1014700082607047816841F004018160704710B557
:1014800000F08CFA00F002F810BD000000B585B045
:101490001A48FFF70FFF0121480200F04FFE4FF4FA
:1014A000004000F02FFE002000908DF80500039012
:1014B0004FF46020029001208DF8100000208DF87C
:1014C000040069460D48FFF741FF01210B48FFF773
:1014D000E5FE0A48FFF7BEFF00BF0848FFF72BFFF5
:1014E0000028FAD10548FFF7C5FF00BF0348FFF702
:1014F0000FFF0028FAD105B000BD00000024014014
:1015000000BFFEE7F0B506460F4600240FE0254673
:1015100007E0EA19D1B2A219D0B200F0E3FA681CD0
:10152000C5B2C4F10D00A842F3DC601CC4B2072CA4
:10153000EDDBF0BD7047000030B589B005460C46C4
:101540000121082000F0FAFD0121042000F0E6FD51
:101550000121084600F0F2FD0121284800F0D2F9EF
:101560004FF4D870ADF8200010208DF82300022031
:101570008DF8220008A9224800F038F94FF41070C5
:10158000ADF8200018208DF8230003208DF82200EC
:1015900008A91B4800F02AF90020ADF81A00ADF8A0
:1015A0001600ADF81850ADF8144005A9154801F023
:1015B00097FD6020ADF804004FF4FA70ADF80A0012
:1015C0000020ADF80C000120ADF8060001A90D487F
:1015D00001F0FCFC01A90B4801F044FD0021094881
:1015E00001F0CCFC0121074801F0D4FC01210548A1
:1015F00001F0DCFC01F06AFC09B030BD00013000F4
:10160000000C01400008004010B5042000F00CF868
:10161000012802D1042000F001F810BD0149086042
:101620007047000014040140014600200022074BCF
:101630001B6803EA0102054B14331B680B4013B10E
:101640000AB1012000E000207047000000040140C2
:10165000002123498279002A3AD00A461268036899
:101660009A430B461A600A1D126803689A430B1DC1
:101670001A60027911440A6803681A430A60184A1A
:101680000832126803689A43154B08331A601A1D12
:10169000126803689A43124B0C331A604279102A7D
:1016A0000ED11A1F126803681A430D4B08331A60D3
:1016B0001A1D126803681A43094B0C331A600DE0B7
:1016C0000749427911440A6803681A430A6005E031
:1016D000027911440A6803689A430A60704700005F
:1016E000000401401FB50121042000F027FD012165
:1016F000102000F023FD0121084600F01FFD082006
:101700008DF80C0001208DF80F008DF80D008DF87C
:101710000E0003A800F074F90420019001208DF858
:101720000A0000208DF8080010208DF80900022121
:10173000002000F03BF801A8FFF78AFF0420ADF875
:10174000000048208DF8030002208DF80200694651
:10175000074800F04BF84FF40050ADF8000010209F
:101760008DF803006946034800F040F81FBD0000F3
:10177000000801400010014010B505230122082196
:101780000948FFF70BFE01210748FFF768FE00BF7D
:1017900002210548FFF7C6FD0028F9D002484C3069
:1017A000006880B210BD00000024014030B5002266
:1017B0008B071C0F0F2303FA04F20B4B8C1053F80A
:1017C00024309343084C8D1044F8253023468C1068
:1017D00053F824308C07240F00FA04F42343024CFE
:1017E0008D1044F8253030BD080001402DE9F0414E
:1017F000024600250026002000230024002791F83F
:1018000003C00CF00F0591F803C00CF0100CBCF1F4
:10181000000F03D091F802C04CEA050591F800C012
:10182000BCF1000F31D0146800202BE04FF0010C08
:101830000CFA00F3B1F800C00CEA03069E4220D176
:1018400083004FF00F0C0CFA03F7BC4305FA03FCBE
:101850004CEA040491F803C0BCF1280F06D14FF004
:10186000010C0CFA00FCC2F814C00AE091F803C0A5
:10187000BCF1480F05D14FF0010C0CFA00FCC2F886
:1018800010C0401C0828D1D31460B1F800C0BCF1CE
:10189000FF0F34DD546800202EE000F1080C4FF0FB
:1018A000010808FA0CF3B1F800C00CEA03069E42E6
:1018B00021D183004FF00F0C0CFA03F7BC4305FA5B
:1018C00003FC4CEA040491F803C0BCF1280F05D1D5
:1018D00000F1080C08FA0CF8C2F8148091F803C063
:1018E000BCF1480F07D100F1080C4FF0010808FACD
:1018F0000CF8C2F81080401C0828CED35460BDE814
:10190000F0810000F0B50A460023002400210025E4
:1019100000F00046B6F1004F02D11D4EF16901E022
:101920001B4E7168C0F3034583B200F44016B6F550
:10193000401F08D121F07061154E766826F0706660
:10194000134F7E6012E000F48016B6F5801F06D1BA
:10195000032606FA05F4A14341F0706106E0460D46
:10196000360103FA06F6B14341F0706122B1460D2B
:10197000360103FA06F6314300F00046B6F1004F97
:1019800002D1034EF16101E0014E7160F0BD000033
:1019900000000140416170470161704708B50121B5
:1019A000082000F0CBFB00208DF803000120ADF8EB
:1019B000000003208DF8020069460248FFF716FF79
:1019C00008BD0000000C014000B54FF4AF7108469F
:1019D00000F0DEFB2020064908601020091D086089
:1019E0000001091F08608020091D086000BD00007B
:1019F000100C014000BFFEE700BFFEE7704700008B
:101A000070B5002100230F22C47804B3154C24685C
:101A100004F4E064C4F5E064210AC1F10403CA409F
:101A2000447804FA03F184781440214309010E4CF0
:101A30000678A155047804F01F050124AC40057810
:101A40006D11AD0005F1E025C5F8004109E004780D
:101A500004F01F050124AC40044D0678761145F8CA
:101A6000264070BD0CED00E000E400E080E100E005
:101A700002490143024A1160704700000000FA0564
:101A80000CED00E070B500240CE0002506E000201D
:101A9000074901EBC5010855681CC5B2802DF6DB6E
:101AA000601CC4B2082CF0DB00F042F970BD0000ED
:101AB0008C1500202DE9F04306460F4690469946C6
:101AC00034460BE03D4605E02946204600F00AF882
:101AD000681CC5B24D45F7DB601CC4B24445F1DB60
:101AE000BDE8F08370B50B46CE1701EB5676C6F312
:101AF000C702CE1701EB5676F610A1EBC606F4B27C
:101B00000123A340DDB20E4B03EBC0039B5CDB4320
:101B10000B4E06EBC006B354094B03EBC0039B5CB2
:101B20002B43074E06EBC006B354054B03EBC00333
:101B30009B5CDB43024E06EBC006B35470BD000055
:101B40008C15002010B504461CB90021A62000F019
:101B500039FA012C03D10021A72000F033FA10BD7F
:101B600010B504463CB90021C82000F02BFA002132
:101B7000A12000F027FA012C07D10021C02000F09D
:101B800021FA0021A02000F01DFA10BD70B50A4610
:101B9000CE1701EB5676C6F3C703CE1701EB567688
:101BA000F610A1EBC606F4B20122A240D5B2054A56
:101BB00002EBC002D25C2A43024E06EBC006F2548E
:101BC00070BD00008C15002008B50121082000F030
:101BD000B5FA43F20800ADF8000010208DF80300BC
:101BE00003208DF8020069465048FFF7FFFD0121F0
:101BF000082000F0A3FA4FF44040ADF80000102098
:101C00008DF8030003208DF8020069464748FFF76E
:101C1000EDFD4FF208014548FFF7BEFE4FF480414D
:101C20004248FFF7B9FE642001F0FAFB4FF480410F
:101C30003E48FFF7AFFEC82001F0F2FB4FF48041B1
:101C40003A48FFF7A9FE0021AE2000F0BBF90021C1
:101C5000084600F0B7F90021102000F0B3F9002188
:101C6000402000F0AFF90021812000F0ABF9002105
:101C7000CF2000F0A7F90021A12000F0A3F9002156
:101C8000C82000F09FF90021A62000F09BF9002158
:101C9000A82000F097F900213F2000F093F90021DF
:101CA000D32000F08FF90021084600F08BF90021C5
:101CB000D52000F087F90021802000F083F9002171
:101CC000D92000F07FF90021F12000F07BF90021FC
:101CD000DA2000F077F90021122000F073F90021DA
:101CE000DB2000F06FF90021402000F06BF90021AB
:101CF000202000F067F90021022000F063F90021A4
:101D00008D2000F05FF90021142000F05BF9002124
:101D1000A42000F057F90021A62000F053F900217B
:101D2000AF2000F04FF9FFF7ADFE08BD000C0140F9
:101D300070B500241CE004F1B001C8B2002100F02D
:101D400041F90021084600F03DF90021102000F083
:101D500039F9002508E0084901EBC501085D0121BA
:101D600000F030F9681CC5B2802DF4DB601CC4B2F1
:101D7000082CE0DB70BD00008C1500202DE9FF4F22
:101D800081B080460E461C4600962046E31704EBC1
:101D90005373DB1021464FEAE47C04EB5C7C4FEA92
:101DA000EC0CA4EBCC0CBCF1000F02D04FF0010CFA
:101DB00001E04FF0000C6344224604EBD27C4FEA72
:101DC0006C0C03FB0CF303F0FF0B03982038C7B235
:101DD000002547E00C2C07D107EB4700234901EB16
:101DE000800010F805A014E0102C05D1204800EB6D
:101DF000071010F805A00CE0182C07D107EBC7005E
:101E00001C4901EB800010F805A002E005B0BDE818
:101E1000F08F4FF000091FE00AF0800020B131463A
:101E20004046FFF7B3FE03E031464046FFF75AFE57
:101E30004FEA4A604FEA106A701CC6B20098301A26
:101E4000A04205D1009E08F1010000F0FF0806E065
:101E500009F1010000F0FF09B9F1080FDCDB00BF58
:101E6000681CC5B25D45B5DB00BFCFE7C03E0008CA
:101E700034430008244900082DE9FF4F07468846EF
:101E800091461C464FF0000B0297CDF80480204687
:101E9000E11704EB5171C1F3C701009160E009FB48
:101EA00004F0C11700EB51710BEBE101CEB20BF165
:101EB000010000F0FF0B002550E0102C05D12C484C
:101EC00000EB0610405D03901BE0182C07D106EBD9
:101ED000C600284901EBC000405D039011E0202CB2
:101EE00005D1254800EBC610405D039009E0402C69
:101EF00005D1224800EB4620405D039001E0BDE89B
:101F0000FF8F4FF0000A17E0039800F0010020B1A6
:101F100041463846FFF73AFE03E041463846FFF7B0
:101F2000E1FD03984010039008F1010000F0FF0864
:101F30000AF1010000F0FF0ABAF1080FE4DB781C97
:101F4000C7B20298381AA04204D1029F0198083003
:101F5000C0B20190DDF80480681CC5B2A542ACDBBC
:101F60000098411EC9B20091002898D100BFC6E771
:101F700026000020A60200207E0300207E0500200F
:101F8000F0B506460F4614461D4613E022782B4650
:101F900039463046FFF7F2FE284605EBD07106EBD6
:101FA0006101CEB2C5F18000B04202DA0026B81C51
:101FB000C7B2641C2078202802DB20787E28E5DD6B
:101FC000F0BD000070B504460E462EB14FF400413E
:101FD0001B48FFF7E1FC04E04FF400411848FFF70D
:101FE000D9FC08211648FFF7D5FC00251BE04FF46B
:101FF00080511348FFF7CEFC04F0800028B14FF465
:1020000000510F48FFF7C8FC04E04FF400510C48A2
:10201000FFF7C0FC4FF480510948FFF7BDFC600694
:10202000040E681CC5B2082DE1DB08210448FFF747
:10203000B3FC4FF400410248FFF7AEFC70BD000056
:10204000000C01407047FCB502462F2300BF002062
:102050008DF805008DF804008DF803008DF802005E
:1020600001208DF8010007208DF800002F230025A6
:102070000521002409E0581EC3B2072C02DA601CB7
:10208000C4B202E00024481EC1B2505C8027274140
:10209000384008B90029EEDCA3F10800C5B21EE003
:1020A000052118E0481E1DF8000000F0800018B15E
:1020B000002901DD012600E000261DF80100400690
:1020C000000E0DF801001DF801003044C0B20DF8FB
:1020D0000100481EC1B2FF29E4DB681EC5B2002D15
:1020E000DED1002106E0505C1DF8017078405054AC
:1020F000481CC1B20529F6DD082BA8DC1078FCBD10
:102100007047000001460020034A506820F4404018
:1021100008435060704700000010024029B1064A91
:10212000D2690243044BDA6104E0034AD269824374
:10213000014BDA61704700000010024029B1064AE5
:1021400092690243044B9A6104E0034A9269824314
:10215000014B9A61704700000010024029B1064A05
:10216000D2680243044BDA6004E0034AD268824337
:10217000014BDA607047000000100240034A126809
:1021800091B201F4E06108127047000008080140B4
:10219000024A1180014A0C32108070473408004016
:1021A000002107E0002201E0531C9AB28242FBDBCF
:1021B0004B1C99B20429F5DB7047000008B50121DA
:1021C0000420FFF7BBFFC020ADF8000014208DF8FD
:1021D000030003208DF8020069460548FFF706FB5F
:1021E00040200349103108608020086008BD0000CD
:1021F000000801402DE9FC4F04460D464FF0000950
:10220000CA46CB466006040E00BF00BF00F0F8F8D7
:10221000ABF1010000F0FF0BBBF1000F00D136E085
:1022200000F0D0F8204600F0B5F800B1EEE72846FF
:1022300000F0B0F800B1E9E700F0C4F8611CC8B2E2
:1022400000F0A8F800B1E1E7002000F06BF881464B
:10225000002000F067F88246012000F063F8804615
:1022600000F0CEF88DF805408DF80450601CC0B227
:102270008DF803008DF802908DF801A000208DF8F4
:1022800000006846FFF7DFFE06464645BDD100BFA9
:1022900049EA0A273846BDE8FC8F00002DE9F05FC7
:1022A00007210020FFF7A6FF834601F023FB8046AD
:1022B000084A094B01F06EFB06464FF06632074BA9
:1022C00001F09CFC044601F02FFA82465046BDE81E
:1022D000F09F00007B14AE47E17A943F6612714094
:1022E00010B580200E4908600220FFF759FF4020FA
:1022F0000B4908600520FFF753FF094808380068BC
:1023000000F0800008B1012400E0002440200449CE
:10231000091D08600320FFF743FF204610BD0000A1
:102320001008014070B5064608250DE0FFF7D8FFFC
:1023300020B16006040E44F0010403E06006040EC0
:1023400004F0FE04681EC5B2002DEFD1304600F047
:1023500003F8204670BD000010B504461CB980206B
:102360000B49086003E080200949091F086002202A
:10237000FFF716FF40200649091F08600620FFF7F7
:102380000FFF4020024908600320FFF709FF10BD3E
:1023900014080140F0B5044608250CE004F0800064
:1023A00008B1012600E000263046FFF7D5FF6006A1
:1023B000040E681EC5B2002DF0D1FFF791FF07464D
:1023C0003846F0BD00B580200C4908600520FFF7B5
:1023D000E7FE4020094908600520FFF7E1FE802064
:1023E0000649091D08600520FFF7DAFE4020034971
:1023F000091D08600520FFF7D3FE00BD100801404D
:1024000000B540200B4908600520FFF7C9FE802079
:10241000084908600520FFF7C3FE40200549091F51
:1024200008600520FFF7BCFE80200249091F0860F4
:1024300000BD000014080140704710B500F002F81C
:1024400010BD00000CB500200190009033480068DA
:1024500040F480303149086000BF3048006800F423
:10246000003000900198401C0190009818B9019824
:10247000B0F5A06FF1D12948006800F4003010B128
:102480000120009001E0002000900098012843D135
:102490002348006840F010002149086008460068A1
:1024A00020F0030008600846006840F00200086061
:1024B0001A4840681949486008464068486008461C
:1024C000406840F4806048600846406820F47C1012
:1024D00048600846406840F4E810486008460068D4
:1024E00040F08070086000BF0C48006800F0007089
:1024F0000028F9D00948406820F0030007494860E7
:102500000846406840F00200486000BF0348406849
:1025100000F00C000828F9D10CBD000000100240AA
:102520000020024010B51023002218211846FFF7A2
:10253000A3FC1023012218212020FFF79DFC10236B
:10254000022218215020FFF797FC102303221821A4
:102550006020FFF791FC63E0FFF70EF93149088036
:1025600008460088A0F51060002816D52E490C7882
:1025700004EBD4714910A4EB4101082202EB811154
:10258000C8B21921FEF7BEFF27480078401E264931
:102590000870FA2000F044FF32E022480088A0F5DD
:1025A0002C60002816D520490C7804EBD471491012
:1025B000A4EB4101082202EB8111C8B21921FEF7F8
:1025C000A1FF19480078401C17490870FA2000F054
:1025D00027FF15E013480088A0F6AB4000280FDD68
:1025E00010480088B0F5706F0ADAFFF74BFA012047
:1025F0000E49087000200E490870FFF799FB10BDC6
:1026000009490C7804EBD4714910A4EB410108226C
:1026100002EB8111C8B2192100F006FAFFF788FB1E
:102620009AE70000060000200A00002009000020B0
:102630000B00002070B5002400BF19E0052094FBBA
:10264000F0F00007050E052094FBF0F100FB1140AF
:1026500000EB40000A2101EBC000C6B204F13000DB
:10266000C2B2102329463046FFF788FB601CC4B273
:102670000A2CE3DB1023042230211846FFF7FCFB71
:102680001023052230212020FFF7F6FB102306221D
:1026900030215020FFF7F0FB10230722302160206B
:1026A000FFF7EAFB70BD00002DE9F04188B0C9A238
:1026B000D2E900109268CDE906020591C8A0006831
:1026C00004900020029003900024C649087800EB93
:1026D000D0714910A0EB4101002968D1FFF7DEFD60
:1026E000C1490860FFF7CEF9BF48006801F070FBF0
:1026F00005460022BD4B01F04BFA57D2BA4800689C
:1027000001F066FB05460022B94B01F03FF8074691
:102710003A460B46B7A16846FDF782FD1023082212
:1027200019462020FFF7A8FB102309221946302064
:10273000FFF7A2FB10230A2219464020FFF79CFB5B
:1027400010230B2219465020FFF796FB10236A46F0
:1027500020213020FFF714FCFFF7EAFA4FF47A70DB
:1027600000F05EFEFFF78EF99F48006801F030FB35
:1027700005460022A14B01F0D1F805D20020A04966
:10278000087000F069F90CE09EA0C2B2102320216D
:102790001820FFF771FB4FF47A7000F041FEFFF74D
:1027A00071F90020994908708E4908700FE18D4930
:1027B000087800EBD0714910A0EB41010129F5D157
:1027C00000BFFEF7D9FFB0F5706FFADBFFF732FFFD
:1027D000FCE0FEF7D1FF8E49088008460088A0F58E
:1027E000106000281DD58B480078052190FBF1F082
:1027F00004A90D5C05A9874A1278885C2946FEF772
:1028000081FE8448007818B90B208249087004E0E2
:1028100080480078401E7F490870FA2000F000FED2
:10282000C4E07B480088A0F52C6000281ED57948BC
:102830000078052190FBF1F004A90D5C05A9754A0B
:102840001278885C2946FEF75DFE724800780B28F6
:1028500003D100206F49087004E06E480078401CE6
:102860006C490870FA2000F0DBFD9FE068480088A2
:10287000A0F6AB40002878DD65480088B0F5706FA1
:1028800073DA644800780A2815DA042C65DA61499D
:1028900009783031CAB204EBC401C8B21023202138
:1028A000FFF76CFAFFF744FA5A48007802A9085576
:1028B000601CC4B251E0574800780A2811D10020AA
:1028C00052490870474908705249087000BFFEF726
:1028D00053FFB0F5706FFADBFFF7D4F808B0BDE82E
:1028E000F0814C4800780B2837D1302380222021FA
:1028F0000020FFF7DFF802A800F014FDB8B10020B7
:10290000424908703749087042490870FFF79AFB3E
:10291000102341A220210846FFF732FBFFF708FAF7
:102920004FF47A7000F07CFDFFF7ACF8D6E7102387
:102930003BA220211820FFF723FBFFF7F9F94FF402
:102940007A7000F06DFD3023802220210020FFF7F7
:10295000B1F8002002900390002400BFFEF70CFFA6
:10296000B0F5706FFADB21E0FFE729480088A0F698
:102970006A30D8B12648008840F66441884215DAAA
:10298000002C0FDD611C01EBC101CAB2611E01EB1D
:10299000C101C8B230232021FFF78CF8FFF7C8F936
:1029A000601EC4B24FF4FA7000F03AFD1948007886
:1029B000052190FBF1F004A90D5C05A9154A1278D8
:1029C000885C294600F030F8FFF7B2F901E700BF54
:1029D00084E70000021A324A62021A324A62084848
:1029E000021231000A000020100000200080404048
:1029F0000000E03F252E31660000000000804240CC
:102A00000C0000207761726E696E6700090000207B
:102A1000060000200B0000205475726500000000C5
:102A200046616C7365000000F0B506460F46002451
:102A30000FE0254607E0EA19D1B2A219D0B2FFF79C
:102A4000A5F8681CC5B2C4F10D00A842F3DC601CF7
:102A5000C4B2072CEDDBF0BD70B510230C22194673
:102A60001820FFF709FA10230D2219462820FFF736
:102A700003FA10230E2219465820FFF7FDF9102300
:102A80000F2219466820FFF7F7F910231A46202174
:102A90001820FFF7F1F91023112220212820FFF739
:102AA000EBF91023122220215820FFF7E5F910231B
:102AB000132220216820FFF7DFF9F8E1FEF75CFE22
:102AC000FB49088008460088A0F51060002825D53D
:102AD000F84A157805EBD5725210122303EB021257
:102AE000D1B2F44A147804EBD4725210A4EB42022F
:102AF000102303EB8212D0B2FEF704FDED480078FC
:102B000018B90320EB49087004E0EA480078401E39
:102B1000E8490870FA2000F083FCAFE1E44800883F
:102B2000A0F52C60002826D5E24A157805EBD57271
:102B30005210122303EB0212D1B2DE4A147804EBD6
:102B4000D4725210A4EB4202102303EB8212D0B2D3
:102B5000FEF7D8FCD7480078032803D10020D549D8
:102B6000087004E0D3480078401CD2490870FA206D
:102B700000F056FC82E1CE480088A0F53A600028BB
:102B800059DDCB480088B0F5446F54DAFEF77AFF80
:102B90000020C849087000BFFEF7EEFDB0F5706F69
:102BA000FADCC54890F90000401C18B9C2484078CA
:102BB00000B987E1C0484078E8B1C04991F9000008
:102BC00000EBD0714910A0EB4101012907D1BB48AE
:102BD00090F900104FF0FF3000F0FAFA05E0B74826
:102BE0000078042801D100F0CDFAB34991F9000032
:102BF000002100F083FCB14991F9000000EBD07195
:102C00004910A0EB410139B9AC4890F900104FF0E0
:102C1000FF3000F0DDFA05E0A8480078012801D176
:102C200000F0B0FA0021481E00F068FC00F0AAFA9B
:102C300000F04CF970BD9E480088A0F6AB4000281B
:102C400098DD9B480088B0F5706F93DA00BFFEF7FF
:102C500093FDB0F5706FFADC4FF47A7000F0E0FB92
:102C60004FF47A7000F0DCFB95489249097800EB4C
:102C7000410090F90000904991F9001088420CD170
:102C80008F488C49097800EB410090F901008A498E
:102C900091F90110884200D109E1884991F90000B9
:102CA00000EBD0714910A0EB4101012974D1844897
:102CB0008049097800EB410090F900007E4991F9C4
:102CC0000010401A7D4991F90010891E48430028E0
:102CD00010DA7B4A774B1B7802EB430292F9011022
:102CE000774A744B1B7802EB430292F9000000F024
:102CF00005FCC3E072486F49097800EB410090F988
:102D000000006D4991F90010401A6C4991F90010CA
:102D1000891E484300282BDB69486649097800EB87
:102D2000410090F90100644991F90110401A1FD047
:102D30006349604A127801EB420149785E4A527851
:102D4000891A48B25D4991F9001000F041FA5C4AD5
:102D5000584B1B7802EB430292F90110584A554B2D
:102D60001B7802EB430292F9000000F0C7FB85E0FC
:102D700000F008FA524A4F4B1B7802EB430292F9DB
:102D800001104F4A4B4B1B7802EB430292F90000B3
:102D900000F0B4FB72E0FFE749484649097800EBD0
:102DA000410090F90100444991F90110401A43494A
:102DB00091F90010C91E4843002810DD404A3D4BE0
:102DC0001B7802EB430292F901103D4A394B1B7804
:102DD00002EB430292F9000000F090FB4EE038480D
:102DE0003449097800EB410090F90100324991F92A
:102DF0000110401A314991F90010C91E48430028BA
:102E00002ADC2F482B49097800EB410090F900009B
:102E1000294991F90010401A1ED02949254A1278F3
:102E200011F81210244A1278891A48B2234991F9EC
:102E3000001000F0CDF9224A1E4B1B7802EB430232
:102E400092F901101E4A1B4B1B7802EB430292F9C8
:102E5000000000F053FB11E000F094F9184A154B04
:102E60001B7802EB430292F90110154A114B1B78B3
:102E700002EB430292F9000000F040FB0D4A157886
:102E800005EBD5725210122303EB0212D1B2094A9C
:102E9000147804EBD4725210A4EB4202102303EB1B
:102EA0008212D0B2FFF7C0FDFEF742FF00BF05E679
:102EB000060000200C00002001000020000000207F
:102EC0001900002000BF00BFB4E6000000B52020BC
:102ED0000649086010200860000108608020086032
:102EE00000210846FFF754F900BD0000140C014012
:102EF000042808D14FF0E021096941F004014FF0A6
:102F0000E022116107E04FF0E021096921F004019E
:102F10004FF0E022116170477047000010B5134870
:102F2000006840F0010011490860084640681049F7
:102F300008400E494860084600680E4908400B49A1
:102F400008600846006820F4802008600846406851
:102F500020F4FE0048604FF41F008860FFF76DFA10
:102F60004FF000600449086010BD000000100240EE
:102F70000000FFF8FFFFF6FE08ED00E021B1028837
:102F800042F08002028004E002884FF67F731A400C
:102F90000280704721B1028842F00102028004E001
:102FA00002884FF6FE731A400280704731B1B0F8C4
:102FB000442042F40042A0F8442005E0B0F8442048
:102FC000C2F30E02A0F844207047000070B5002440
:102FD00000220023058C4FF6FE7635400584028CD6
:102FE0008388048B4FF68F752C40B51E2C400D88BE
:102FF0002C43751E2A400D892A434D882A43144DBF
:10300000A8420BD0134DA84208D0134DA84205D0BA
:10301000124DA84202D0124DA84213D14FF6F775B7
:103020002A404D892A434FF6FB752A408D882A4352
:103030004FF6FF652B404FF6FF552B408D892B43F4
:10304000CD892B4383800483CD888586028470BD1F
:10305000002C014000340140004001400044014088
:103060000048014070B5002200230024058C4EF674
:10307000FF7635400584038C8488828B48F6FF7583
:103080002A404FF6FF452A400D884FF6FF7606EAA4
:1030900005252A434DF6FF752B400D8906EA0535B7
:1030A0002B434D8806EA05352B430B4DA84202D031
:1030B0000A4DA84208D14BF6FF752C408D894FF67A
:1030C000FF7606EA85152C4384808283CD88A0F89C
:1030D0004050038470BD0000002C014000340140CA
:1030E000002202881D4B98420ED01D4B98420BD0F7
:1030F000B0F1804F08D01B4B984205D01A4B984234
:1031000002D01A4B984204D14FF68F731A404B8865
:103110001A43174B984207D0164B984204D04FF6EB
:10312000FF431A40CB881A4302808B8883850B8823
:1031300003850A4B98420BD0094B984208D00E4B9E
:10314000984205D00D4B984202D00D4B984201D1C8
:103150000B7A03860123838270470000002C014014
:10316000003401400004004000080040000C004012
:1031700000100040001400400040014000440140A5
:103180000048014010B59621084600F073F84FF44E
:103190007A7000F045F94FF4487000F041F900BF33
:1031A000FEF7ECFF0228FBD108480078801C40B2F3
:1031B00006490870084690F90000042804DD084616
:1031C0000078001F40B2087010BD00000000002011
:1031D00070B505460C46FEF7F7FB642000F020F9B9
:1031E000FFF774FE012C01D0022C01D1002D05DC6B
:1031F000032C01D0042C1DD1002D1BDA1C480078B3
:10320000012803D104201A49087005E01848007805
:10321000401E40B2164908709621084600F02AF870
:103220004FF4C87000F0FCF800BFFEF7A7FF0128BC
:10323000FBD11AE00E480078042803D101200C4984
:10324000087005E00A480078401C40B20849087040
:103250009621084600F024F84FF4C87000F0E0F81A
:1032600000BFFEF78BFF0428FBD1FFF72FFE70BDD8
:103270000000002010B503460C4621461846FEF714
:1032800087FF2020054908601020091F0860000101
:1032900008608020091D086010BD0000140C01406A
:1032A00010B503460C4621461846FEF771FF202054
:1032B000054908601020091D086000010860802091
:1032C000091F086010BD0000100C014010B5114925
:1032D000098801F00F0119B10E49091D088817E08E
:1032E0000C49098801F0200191B10A49091D08889B
:1032F000094A11684A1C084C2260084A5054214669
:10330000096840F2FF32914202D300212246116047
:1033100010BD000000440040841500200C1A00205D
:1033200000BFFEE770B504462046FDF729F80546C4
:103330000E48FDF725F8854215D120780B4909780C
:10334000884210D160780949497888420BD1A07829
:1033500006498978884206D1E0780449C9788842CC
:1033600001D1012070BD0020FCE700001400002006
:1033700008B501210420FEF7E1FE4FF47060ADF8BE
:10338000000004208DF8030002208DF80200694639
:103390000548FEF72BFA4FF48050ADF8000069465F
:1033A0000148FEF723FA08BD00080140490050EA31
:1033B000C12018BF04204A0D18BF40F0010040F2A0
:1033C000FF72B2EB515F08BF40F00200012808BF56
:1033D0000520704730380A2801D2012070470020AC
:1033E0007047000010B504466FF00400FFF780FD41
:1033F000E11704EB5171C1F3C701074A1170104680
:10340000007800EB4001C1EBC0104FF6FF7101EAFC
:10341000C0000249088010BD2200002024000020C6
:103420000146114A12884A434FF0E0235A610022B4
:103430009A611A46126942F001021A6100BF4FF008
:10344000E022106900F001021AB100F48032002A73
:10345000F5D04FF0E022126922F001024FF0E02394
:103460001A6100229A617047240000204820FFF76B
:10347000B9FF4FF4A060FEF7FBFAFEF733F9FFF750
:1034800077FF472140F2E730FEF756F8FEF796FE49
:10349000FDF7F5FFFEF798FB0020FEF753FB002039
:1034A000FEF75EFB012011490870FF2010490870EB
:1034B000002048704FF400500E4908614FF47A70B4
:1034C000FFF7AEFF4FF400510A48FEF763FA0CE035
:1034D0000948007810B1012806D102E0FFF722F870
:1034E00002E0FFF7E1F800BF00BFF1E700000020B5
:1034F00001000020001001400900002070B50446C2
:103500000D46FEF761FAEDE0FEF738FE77490870E8
:1035100008460078072877D1FEF756FA6420FFF7AF
:103520007FFFFFF7D3FC724890F90000012806D016
:10353000022819D0032810D004281CD106E06D48B9
:103540000078401C40B26B49087014E0694840782C
:10355000401C40B2674948700DE066480078401E44
:1035600040B26449087006E062484078401E40B2AC
:103570006049487000BF00BF4023802230210020F6
:10358000FEF798FA5B4800783030C2B21023302141
:103590002020FEF7F3FB574840783030C2B21023AA
:1035A00030214020FEF7EAFBFEF7C2FB514890F9BC
:1035B0000000A0421BD14F4890F90100A84202D15F
:1035C000FFF784FC8FE04A4991F9000000EBD071CD
:1035D0004910A0EB4101012929D146494978691ACE
:1035E00048B2434991F90010FFF7F2FD1FE041484E
:1035F00090F90100A8421AD13E4890F90000A0427B
:1036000003D1FFF763FC6EE014E0394991F9000043
:1036100000EBD0714910A0EB410141B9354909785F
:10362000611A48B2324991F90010FFF7D1FDFEF757
:10363000CBF957E02D480078C8B92F480078012809
:1036400005D14FF416719620FEF7A2FD4AE02A48F4
:103650000078042804D196218800FEF799FD41E006
:103660002548007802283DD1FEF7AEF93AE01F4820
:103670000078012809D140F226214FF4AF70FEF7FF
:1036800087FD01201C4908702CE0184800780428A8
:1036900009D14FF4AF7140F22620FEF779FD0420E6
:1036A000154908701EE011480078062806D14FF42D
:1036B000AF714FF4E170FEF76BFD13E00B4800783B
:1036C000032806D14FF4E1714FF4AF70FEF760FDAF
:1036D00008E006480078022804D1FEF775F90120B9
:1036E0000549087010E700BF70BD0000040000200D
:1036F00000000020010000200300002010B5002978
:103700000AD00878002807D005487844FDF7B6F9B4
:10371000002801D0002010BD0248784410BD0000F0
:103720003E2000003620000021F00042A2F160524D
:10373000B2F5801F01F0004328BFD2F17F6C0BD996
:103740005FEA001C43EAC20242EB507018BF7047A8
:1037500028BF20F001007047B2F5801FBCBF18469B
:1037600070474FEA410C1CF5001F02D2084600F0DA
:10377000A0BB70B500F0B8F900000089FFF7F6BFF4
:103780004FF00040A0F580007047000010B591EAAE
:10379000030F48BF83F0004300F13882841A71EBB5
:1037A000030C05D2121943EB0C03001B61EB0C0157
:1037B000DFF824E14FEA1154A4EB135C1EEA430F37
:1037C00018BF9EEA445F73D023EA0E03DCF1200E9B
:1037D00021EA045143F4801332D322FA0CFE10EB99
:1037E0000E0023FA0CFE41EB0E01CCF1200E03FA81
:1037F0000EFE10EB0E0051F10001B1F5801FCCF16F
:10380000200E32D201EB045112FA0EF2BDE8104044
:1038100058BF7047401C38BF5FEA420218BF70476C
:10382000002814BF20F0010041F100014FEA4103DC
:1038300013F5001F38BF7047A1F1C04100F0A2B9D5
:10384000012A43EB0302ACF1200CDCF11F0E32BF66
:103850004FF0000E23FA0CF310EB030041EB045180
:10386000B4EB115FD0D0A1EB045101F580114908F0
:103870005FEA300001EB04510ED350F1000038BF75
:1038800012FA0EFE08D1BDE81040C9E7401C38BF4F
:103890005FEA4202CAD1C3E7BDE810404FEA4103E4
:1038A00013F5001F38BF7047A1F1C04100F06AB99D
:1038B0009EEA445F08D011EA5E0FBDE8104004BFE5
:1038C00001F0004100207047BDE8104070B500F0E5
:1038D0000BF900BF64FBBE3E0000E0FF491058BF7B
:1038E000C1F140415B1058BFC3F140438B42EFF33D
:1038F00000807047B0FA80F310FA03F10AD0C3F1E8
:103900001D0303F580634FEA41504FEA035202EB77
:10391000D12170474FF000007047000051EA030CBE
:1039200017D41CF5801F58BFBCF5801F00F106801E
:10393000994218BF704708BF9042704707D711F5EA
:10394000801F58BF13F5801F19D4994270478942D0
:1039500070471CF5801F08D5BCF5801FF7D58B423A
:1039600018BF704708BF824270474FF4001C1CEB21
:10397000410F38BF1CEB430F01D28B42704770B52B
:1039800000F0B2F8922449004FF000514FF08053FC
:10399000FFF7A4BFDFF848C170B51CEA111E1EBFB7
:1039A0001CEA13159EEA0C0F95EA0C0F00F06F80CD
:1039B00081EA030423EA4C134EEAD47E21EA4C1137
:1039C00041F4801143F48013AE44A1FB024CA0FBF0
:1039D0000365AEF17F7E361955EB0C05A1FB034C58
:1039E0004CF10003A0FB021C16EB0C06654153F1E1
:1039F0000003094218BF46F0010613F4007F0BD103
:103A00004FEA03314FEA0530340341EA155140EAE9
:103A100016506FF003020AE04FEAC3214FEAC520B7
:103A2000F40241EA555140EA56506FF0020202EBAF
:103A30002E4201EB025585EACE710AD05FEA440CB2
:103A400018BF24F0004450F1000041F1000120EAC9
:103A5000D47040F2FE7C624500D270BDA84214BF13
:103A60004FF080444FF04044002E08BF0024BEF1C8
:103A7000806FA8BFA1F1C041BDE8704080F2828094
:103A80004FF0000001F1C04101F0004170479EEA93
:103A90000C0F0CEA131518BF95EA0C0F06D04FF067
:103AA000000081EA030E0EF0004170BD00F01CF82A
:103AB0008900013E00F007B800F009B84FEA430C56
:103AC0005FEA5C5C08D081EA030100F05BB84FEA72
:103AD000410C5FEA5C5CF6D14FF000000149704791
:103AE0000000FF070000F87F0EF1020E2EF0030E1B
:103AF0005EF8046B364205D4012A43EB030515F545
:103B0000001F12D8012841EB010C1CF5001F0CD836
:103B10000ED14FEAD17C15F5001F0CEB4C0C0CF1CB
:103B2000020C08BF4CEBD37C04E04FF0080C01E022
:103B30004FEAD37C0CEB4C0526FA05F606F0070697
:103B4000B6F1040C06D20EEB860CBDE870404CF0CA
:103B5000010C6047DFE80CF0090B02024FF0004156
:103B60004FF00000A1F5002170BD19461046012854
:103B700051EB010418BFD4F5001484BF002001F0FC
:103B8000004170BD0808A0F500114FEA31017047EF
:103B900053EA010C17D41CF5801F58BFBCF5801FD9
:103BA00000F106808B4218BF704708BF8242704701
:103BB00007D713F5801F58BF11F5801F19D48B420A
:103BC00070479B4270471CF5801F08D5BCF5801FCD
:103BD000F7D5994218BF704708BF904270474FF41D
:103BE000001C1CEB430F38BF1CEB410F01D2994264
:103BF00070470FB40CBC03BCFFF7C1BE10B591EA0F
:103C0000030F48BF83F000433FF5C8AD841A71EB42
:103C1000030C07D212198CF0004C43EB0C03001B71
:103C200061EB0C01DFF8A4E14FEA1154A4EB135C43
:103C30001EEA430F18BF9EEA445F00F0B08023EAFB
:103C40006E03524221EA0451C3EB6E0338BF5B1E80
:103C5000DCF1200E25D322FA0CFE10EB0E0043FA05
:103C60000CFE41EB0E01CCF1200E03FA0EFE10EB20
:103C70000E0051F10001CCF1200E29D412FA0EF2FF
:103C800001EB0451BDE8104058BF7047401C1CBFF9
:103C9000B2F1004F704700280CBF491C20F0010012
:103CA000704712EB020E43EB030218BF4FF0010EF8
:103CB0004EEA4202ACF1200CDCF11E0E54D943FA5C
:103CC0000CFE10EB0E0051F1FF31CCF11E0ED5D5DC
:103CD0000EF1010E12FA0EFE404141EB010101EB23
:103CE000445C5FEA5C5C10D910EBDE7001EB0451C0
:103CF00038BFBEF1004FBDE8104018BF7047002824
:103D00000CBF491C20F00100704730D24FEAD42C80
:103D100011F5001124F400641BD0B1FA81F20B3AC2
:103D2000A41AA41ED2F12003914030FA03F31943E0
:103D3000904001EBCC71002C01EB0451BDE8104028
:103D4000A8BF704701F1C0414FF0000001F00041F1
:103D50007047B0FA80F310FA03F100D110BDE41AF5
:103D6000173C4805C90AE4E701EB045110BD4910AE
:103D700001EB0451BDE810404FEA300002E04FF083
:103D8000000170474A0008BF0042F8D0B2F5001F9A
:103D900028BF704701F000414FF0000070479EEAD5
:103DA000445F07D011EA5E0FBDE8104004BF002158
:103DB00000207047BDE8104070B5FFF795FE00BFCA
:103DC00040DFF63E83F00041104670470000E0FF00
:103DD00043004FEAD30C4FEA3C0C43401FBF40075F
:103DE0000CF1605113F0FE4F70471CF0006F03D1CF
:103DF00000200CF0004170470CF0004343EA507083
:103E000010B540EACC0000F00EF800BF00000092B0
:103E10004FEA0001FFF7B6BE4FF000414FF000003F
:103E2000A1F5002170470EF1020E2EF0030E5EF890
:103E3000044B244204D44FEA4102B2F17F4F11D81F
:103E40004FEA4003B3F17F4F0CD80ED14FEAD07C3C
:103E5000B2F17F4F0CEB4C0C0CF1020C08BF4CEB99
:103E6000D17C04E04FF0080C01E04FEAD17C0CEB70
:103E70004C0324FA03F404F00704B4F1040C06D252
:103E80000EEB840CBDE810404CF0010C6047DFE8FD
:103E90000CF0070802024FF00040A0F5800010BDB2
:103EA0000846420018BFD2F1807288BF00F000407F
:103EB00010BDFF2141EAD050C0057047FCF75BBB45
:103EC00000000000000000000000000000000000F2
:103ED0003F400000000000000000300040003000C3
:103EE0004000000009000BC03D000BC03D00090070
:103EF00018C024407FE0224031800000180024C018
:103F00001B000D803240018003801C4027401C8034
:103F100007400040100060000000000000000000AA
:103F20000000000000001F802040402000004020D2
:103F300020401F8000000000090006001F800600CE
:103F400009000000040004003F8004000400000099
:103F500000100060000000000000000004000400E9
:103F60000400040004000000000000400000000005
:103F700000000000002001C00600380040000000E2
:103F80001F802040204020401F8000000000104083
:103F90003FC000400000000018C0214022402440E3
:103FA0001840000010802040244024401B80000066
:103FB00002000D0011003FC0014000003C80244081
:103FC00024402440238000001F80244024403440AB
:103FD000038000003000200027C0380020000000CF
:103FE0001B802440244024401B8000001C0022C071
:103FF000224022401F800000000000000840000016
:10400000000000000000000004600000000000004C
:10401000000004000A00110020804040090009004F
:104020000900090009000000000040402080110044
:104030000A0004001800200023402400180000009B
:104040001F802040274029401F400000004007C03B
:1040500039000F0001C0004020403FC024402440F0
:104060001B8000001F802040204020403080000046
:1040700020403FC0204020401F80000020403FC023
:1040800024402E4030C0000020403FC024402E007D
:10409000300000000F0010802040224033800200DA
:1040A00020403FC0040004003FC02040204020408A
:1040B0003FC02040204000000060202020203FC062
:1040C0002000200020403FC024400B0030C0204092
:1040D00020403FC020400040004000C03FC03C00A6
:1040E00003C03C003FC0000020403FC00C40230004
:1040F0003FC020001F802040204020401F80000043
:1041000020403FC024402400180000001F802140B0
:10411000214020E01FA0000020403FC02440260096
:1041200019C0004018C024402440224031800000C3
:10413000300020403FC020403000000020003F8081
:10414000004000403F80200020003E0001C00700EA
:1041500038002000380007C03C0007C038000000CD
:10416000204039C0060039C02040000020003840FF
:1041700007C0384020000000304021C026403840B1
:1041800020C00000000000007FE040204020000030
:10419000000070000C000380004000000000402080
:1041A00040207FE0000000000000200040002000D0
:1041B000000000000010001000100010001000109F
:1041C000000000004000000000000000000002802D
:1041D0000540054003C0004020003FC004400440AB
:1041E00003800000000003800440044006400000FB
:1041F00000000380044024403FC0004000000380D2
:104200000540054003400000000004401FC024405A
:1042100024402000000002E0055005500650042014
:1042200020403FC00440040003C0004000000440A0
:1042300027C000400000000000100010041027E01C
:104240000000000020403FC00140070004C00440BF
:10425000204020403FC000400040000007C0040054
:1042600007C0040003C00000044007C0044004006D
:1042700003C00040000003800440044003800000AD
:10428000041007F004500440038000000000038085
:104290000440045007F00010044007C0024004002E
:1042A00004000000000006400540054004C0000076
:1042B000000004001F80044000400000040007804C
:1042C0000040044007C000400400070004C0018013
:1042D00006000400060001C0070001C0060000003F
:1042E000044006C0010006C004400000041007108E
:1042F00004E00180060004000000044005C0064000
:10430000044000000000000004007BE040200000AA
:10431000000000000000FFF000000000000040204E
:104320007BE004000000000040008000400020000E
:10433000200040000000000000000000000000001D
:10434000000000000000000000001FCC000C000076
:10435000000000000000080030006000080030008D
:1043600060000000022003FC1E20022003FC1E202F
:104370000220000000000E1811043FFF10840C788A
:10438000000000000F0010840F3800C00778188468
:104390000078000000780F8410C411240E9800E407
:1043A00000840008080068007000000000000000A1
:1043B0000000000000000000000007E018182004C2
:1043C00040020000000040022004181807E000002E
:1043D000000000000240024001800FF00180024016
:1043E000024000000080008000800FF80080008004
:1043F000008000000001000D000E00000000000021
:10440000000000000000008000800080008000802C
:10441000008000800000000C000C00000000000084
:104420000000000000000006001800600180060087
:1044300018002000000007F0080810041004080805
:1044400007F000000000080408041FFC000400043A
:104450000000000000000E0C101410241044118401
:104460000E0C000000000C18100411041104128836
:104470000C700000000000E00320042408241FFC4E
:104480000024000000001F981084110411041088FB
:1044900010700000000007F008881104110418884B
:1044A0000070000000001C00100010FC13001C0035
:1044B0001000000000000E381144108410841144D4
:1044C0000E38000000000700088C104410440888D3
:1044D00007F00000000000000000030C030C0000C7
:1044E00000000000000000000001010600000000C4
:1044F00000000000000000800140022004100808B5
:1045000010040000022002200220022002200220CB
:1045100002200000000010040808041002200140DE
:104520000080000000000E001200100C106C1080C3
:104530000F00000003E00C1813E4142417C408282B
:1045400007D000000004003C03C41C40074000E406
:10455000001C000410041FFC1104110411040E8837
:104560000070000003E00C18100410041004100880
:104570001C10000010041FFC100410041004080894
:1045800007F0000010041FFC1104110417C41004EC
:104590000818000010041FFC1104110017C01000BF
:1045A0000800000003E00C181004100410441C78EC
:1045B0000040000010041FFC108400800080108464
:1045C0001FFC10040000100410041FFC1004100451
:1045D0000000000000030001100110011FFE100088
:1045E0001000000010041FFC110403801464181C48
:1045F0001004000010041FFC100400040004000458
:10460000000C000010041FFC1F0000FC1F001FFC1A
:104610001004000010041FFC0C04030000E010183C
:104620001FFC100007F0080810041004100408080C
:1046300007F0000010041FFC108410801080108010
:104640000F00000007F0081810241024101C080A9E
:1046500007F2000010041FFC1104110011C01130FA
:104660000E0C000400000E1C110410841084104471
:104670001C3800001800100010041FFC100410006B
:104680001800000010001FF81004000400041004BB
:104690001FF8100010001E0011E0001C00701380B5
:1046A0001C0010001FC0103C00E01F0000E0103C88
:1046B0001FC000001004180C163401C001C01634CD
:1046C000180C100410001C00130400FC13041C0040
:1046D000100000000804101C1064108413041C0453
:1046E000101800000000000000007FFE40024002A1
:1046F00040020000000030000C0003800060001C3D
:104700000003000000004002400240027FFE000063
:1047100000000000000000002000400040004000B9
:104720002000000000010001000100010001000163
:1047300000010001000040004000200000000000D7
:1047400000000000000000980124014401440144DD
:1047500000FC000410001FFC008801040104008814
:1047600000700000000000700088010401040104D2
:104770000088000000000070008801040104110896
:104780001FFC0004000000F80144014401440144FE
:1047900000C800000000010401040FFC1104110412
:1047A00011001800000000D601290129012901C9C2
:1047B0000106000010041FFC008401000100010438
:1047C00000FC000400000104190419FC00040004AA
:1047D000000000000000000300010101190119FEA2
:1047E0000000000010041FFC0024004001B4010C74
:1047F000010400000000100410041FFC0004000469
:1048000000000000010401FC0104010001FC01049E
:10481000010000FC010401FC00840100010001040E
:1048200000FC0004000000F801040104010401047C
:1048300000F80000010101FF008501040104008867
:1048400000700000000000700088010401040105F0
:1048500001FF00010104010401FC008401040100C6
:1048600001800000000000CC012401240124012467
:104870000198000000000100010007F80104010494
:1048800000000000010001F8000400040004010819
:1048900001FC0004010001800170000C00100160A7
:1048A0000180010001F0010C003001C00030010C5A
:1048B00001F0010000000104018C00740170018C02
:1048C00001040000010101810171000E0018016066
:1048D0000180010000000184010C013401440184C5
:1048E000010C0000000000000000000001003EFC80
:1048F000400240020000000000000000FFFF000036
:10490000000000000000400240023EFC01000000E8
:1049100000000000000060008000800040004000B7
:104920002000200000000000000000000000000047
:104930000000000000000000000000000000000077
:104940000000000000000000000000000000000067
:10495000000000000000000F80380FFE380F803884
:104960000000000000000000000000000000000047
:1049700000000100000600000C00003800003100BB
:10498000000600000C0000380000300000000000AD
:104990000000000061800067F807F9800061800076
:1049A00061800061800061800067F807F980006124
:1049B0008000000000000000000001C0E003E0F003
:1049C0000630080418081FFFFE040E080787F003CE
:1049D00081E000000000000001F000060C0004046B
:1049E00008060C7001F9C0000E00003BE000EC1856
:1049F000070808040C180003E00000000001E000B4
:104A000007F003F818041C0804170807E1D003C0D6
:104A1000E00023B0003C0800200800001000000067
:104A20000000000100003100003200001C00000006
:104A30000000000000000000000000000000000076
:104A40000000000000000000000000000000000066
:104A5000000000007F0001FFC00780F00C0018106C
:104A600000042000020000000000002000021000EE
:104A7000040C00180780F001FFC0007F0000000058
:104A80000000000000000000000000000000000026
:104A90004200006600006600003C0000180003FFB2
:104AA000C0001800003C00006600006600004200E4
:104AB00000000000080000080000080000080000D6
:104AC000080001FFC00008000008000008000008FE
:104AD000000008000000000000010000310000326A
:104AE00000001C00000000000000000000000000AA
:104AF00000000000000000000000000008000008A6
:104B0000000008000008000008000008000008007D
:104B1000000800000800000800000000000000007D
:104B200000000000380000380000380000000000DD
:104B30000000000000000000000000000000000075
:104B400000000000000600001C0000700001800052
:104B50000E0000380000C0000700001C00003000FC
:104B600000000000000000007F8001FFE003807073
:104B700006001804000804000806001803807001ED
:104B8000FFE0007F80000000000000000000010046
:104B90000801000801000803FFF807FFF8000008FB
:104BA00000000800000800000000000000000001F4
:104BB000C03802C058040098040118040218040404
:104BC00018061C1803F81801E0F8000000000000A7
:104BD00000000001C0E003C0F0040008040808045D
:104BE000080806180803F41801E7F00001E00000C7
:104BF00000000000000000000300000D0000110094
:104C000000610000810803010807FFF80FFFF800AA
:104C100001080001080000000000000000E007FC9F
:104C2000D0060808061008061008061008061838EE
:104C3000060FF00607C000000000000000000000A2
:104C40003F8001FFE00384300208180410080410BC
:104C500008041008071810030FF00007C000000038
:104C600000000000000003C000070000060000066E
:104C700000F80607F806180006E000070000060026
:104C80000000000000000001E1E003F7F00634102E
:104C9000041808041808040C08040C080616180365
:104CA000F3F001C1E000000000000000F80003FC88
:104CB0003003063804020804020804020804041041
:104CC0000308F001FFC0007F0000000000000000AA
:104CD00000000000000000000000000070380070BC
:104CE00038007038000000000000000000000000E4
:104CF00000000000000000000000000000000000B4
:104D0000301A00301C00000000000000000000000D
:104D10000000000000000000000000080000140077
:104D200000220000410000808001004002002004B9
:104D30000010080008000000000000002100002111
:104D400000002100002100002100002100002100BE
:104D500000210000210000210000000000000000F0
:104D6000000008000804001002002001004000803C
:104D70008000410000220000140000080000000034
:104D800000000003C00004C0000400000800380850
:104D90000F380808380810000C300007E00003C086
:104DA00000000000000000003F8000FFE003807072
:104DB000020F1006708804C088048308047F8802EC
:104DC000C09003012000FE40000008000018000110
:104DD000F8003E0801C20007020007E20000FE00E2
:104DE000001FC80001F80000380000080400080790
:104DF000FFF807FFF8040808040808040808040876
:104E00000806180803F41801E7F00001E0000000AC
:104E1000000000003F8001FFE003807002001804E2
:104E200000080400080400080400100600200780A1
:104E3000C000000004000807FFF807FFF80400089E
:104E40000400080400080400180200100380700128
:104E5000FFE0007F8000000004000807FFF807FF64
:104E6000F8040808040808040808040808043E08B0
:104E70000400080600180100600000000400080794
:104E8000FFF807FFF80408080408000408000408F5
:104E900000043E0006000006000001800000000043
:104EA000000000003F8001FFE0038070060018044E
:104EB00000080402080402080203F00783F000025D
:104EC0000000020004000807FFF807FFF8040808C4
:104ED0000008000008000008000008000408080797
:104EE000FFF807FFF80400080000000000000400BD
:104EF0000804000804000807FFF807FFF80400088A
:104F00000400080400080000000000000000000089
:104F10000006000007000001040001040001040075
:104F20000307FFFE07FFFC0400000400000400006C
:104F300004000807FFF807FFF8040C080018000039
:104F40003E0004C7800503C80600F80400380400CA
:104F50001800000804000807FFF807FFF80400081D
:104F60000000080000080000080000080000080019
:104F7000001800006000000004000807FFF8078028
:104F80000807FC00007FC00003F80007C00078009D
:104F900007800807FFF807FFF80400080400080767
:104FA000FFF807000803C00000E000003800001E02
:104FB000000007000001C00400F007FFF804000033
:104FC000000000007F8001FFE003807006001804ED
:104FD000000804000806001803003001FFE0007F0D
:104FE0008000000004000807FFF807FFF804040829
:104FF000040400040400040400040400060C00037C
:10500000F80001F000000000000000007F8001FFB8
:10501000E00380700600880400880400C806003C95
:1050200003003E01FFE6007F840000000400080743
:10503000FFF807FFF8040808040800040C00040F38
:1050400000040BC00610F003F03801E0080000086F
:1050500000000001E0F803F03006301004180804E6
:105060001808040C08040C080206180207F007814F
:10507000E0000000018000060000040000040000C1
:1050800004000807FFF807FFF80400080400000404
:10509000000006000001800004000007FFE007FF99
:1050A000F0040018000008000008000008000008D4
:1050B00000000804001007FFE004000004000006E0
:1050C000000007E00007FE00041FE00001F80000F8
:1050D000380001E0043E0007C000060000040000A4
:1050E00004000007E00007FFC0041FF80007C00726
:1050F000F80007FF80043FF80007C004F80007002D
:105100000004000000000004000806001807C07832
:1051100005F1C8003E00001F800463E80780F80620
:1051200000180400080000000400000600000780CA
:105130000007E008047C08001FF80007F8001808C2
:1051400004E0080700000600000400000000000161
:1051500000080600380400F80403E8040F08047C83
:105160000805F00807C008070018040060000000E8
:105170000000000000000000000000000000003FF0
:10518000FFFE20000220000220000220000220007A
:1051900002000000000000000000080000070000FE
:1051A00000C0000038000006000001C00000300010
:1051B000000E0000010000000000000000002000C0
:1051C000022000022000022000022000023FFFFE19
:1051D00000000000000000000000000000000000CF
:1051E0000000000000080000100000300000200057
:1051F0000030000010000008000000000000000067
:105200000000010000010000010000010000010099
:105210000001000001000001000001000001000089
:10522000010000010000000000000000002000005C
:10523000200000100000100000000000000000002E
:1052400000000000000000000000000000F0001955
:10525000F8001B180022080026080024080024106B
:10526000003FF8001FF800000800001800000004CC
:10527000000007FFF80FFFF00018180010080020CA
:1052800008002008003018001FF0000FC0000000C8
:105290000000000007C0001FF000183000200800C8
:1052A0002008002008003C08001C100000600000DE
:1052B000000000000000000007C0001FF0003818C8
:1052C00000200800200800200804101007FFF80F35
:1052D000FFF00000100000000000000000000007C8
:1052E000C0001FF00012300022180022080022081F
:1052F000003208001E10000E200000000000000018
:10530000200000200800200801FFF803FFF8062015
:105310000804200804200807200003000000000003
:1053200000000000000E000E6E001FF30031B100FF
:1053300020B10020B1003191001F13002E1E00206B
:105340000E00300000000004000807FFF80FFFF80F
:10535000001008002000002000002008003FF80096
:105360001FF80000080000000000000000000020FE
:1053700008002008002008063FF8063FF800000853
:10538000000008000008000000000000000000000D
:1053900000000000030000030020010020010020A5
:1053A00003063FFE063FFC00000000000000000076
:1053B00000000004000807FFF80FFFF80001880054
:1053C0000300002FC00038F800203800200800003B
:1053D00008000000000000000000040008040008AD
:1053E00004000807FFF80FFFF8000008000008009D
:1053F0000008000000000000002008003FF8003F07
:10540000F8001008002000003FF8003FF8001008E6
:10541000002000003FF8003FF800000800000000F6
:105420002008003FF8003FF800100800100000209E
:1054300000002008003FF8001FF8000008000000EE
:105440000000000007C0000FF00018300030080016
:105450002008002008003008001830000FF0000776
:10546000C0000000000000002001003FFF003FFFDF
:10547000001011002009002008002008003038002A
:105480001FF0000FC00000000000000007C0001F58
:10549000F000381800200800200800200900101132
:1054A000001FFF003FFF0000010000000020080077
:1054B0002008002008003FF8003FF800080800100E
:1054C000080020080020000030000030000000002C
:1054D000000000000000000C78001E1800330800D7
:1054E00023080021080021880021980030F00038AE
:1054F00060000000000000002000002000002000EC
:1055000000FFF003FFF8002008002008002008003A
:105510000030000000000000000000002000003FFC
:10552000F0007FF8000018000008000008002010BC
:10553000003FF8007FF000001000000000000000B5
:105540002000003000003C00003F800023F00000FD
:1055500078000070002380003C0000300000200034
:10556000002000003C00003FE00023F80000E000C5
:105570002700003E00003FE00021F80001E0003E6F
:10558000000020000000000020080020080038383B
:10559000003E680027800003C8002CF8003838005F
:1055A000201800200800000000000000200000304B
:1055B00003003C01003F830023EC000070002380C7
:1055C000003C00002000002000000000000000005F
:1055D00000000038080020380020F80023E8002FE1
:1055E00088003E0800380800201800007000000005
:1055F00000000000000000000000000000000000AB
:1056000008000014001FF7FC300006200002000014
:10561000000000000000000000000000000000008A
:10562000000000000000FFFFFF000000000000007D
:10563000000000000000000000000000000020004A
:10564000023000061FF7FC001400000800000000F4
:105650000000000000000000000000000000001832
:10566000000060000040000040000020000010002A
:10567000000800000400000400000C0000100000FE
:10568000040000080000000000000002000100000B
:105690001000000002400000000000A00000000018
:1056A00005400000000000C8000000000C400000A1
:1056B0000000409C00000000194000000020BCBE1B
:1056C0000000000034400000BFC91B8E0000000431
:1056D000B5400000504BCFD06607E2CF010000007C
:1056E0006C4100003E8251AADFEEA73401000000A9
:1056F000D9420000DCB5A0E23A301F97FFFFFFFF60
:10570000B4450000FD25A0C8E9A3C14FFFFFFFFF7E
:10571000FF3F00000000008000000000FF3F00008D
:105720000000008000000000645700080000002016
:105730008C15000028010008205A00088C15002054
:10574000E40E0000840100081C000000430000007B
:10575000F8FFFFFF0C0000000E0000000F0000002B
:105760002E000000011415020406081601010102B2
:105770000219034115404042CC3D808888FF031A3E
:105780008011300E201F2040504C4340405F40406D
:10579000401BFC04012C05FE440112042440300F80
:1057A0002809FE424243424242FE52280902FE922A
:1057B0009292FE02062722FC101008180F08080417
:1057C000FF0484402718274080180B0484443404C5
:1057D0008F0484744F3F13C404100849C94D2B290A
:1057E00028015F020C4080403F80112809FC24A45E
:1057F000242222A362911980280A58475048454222
:10580000454850801809FE0202F2121212F26A5143
:10581000300C7F2020272424242720207F101004F0
:1058200084E45C44C42010E82724E4342CE05810BD
:1058300002017F10103F80601F09093F49897F6086
:105840003192FF173F90482018071C071820A0111D
:10585000400D4042445840407F40405048C63A4086
:10586000E939012933180D0808E8292E28E8080825
:10587000C80C0B0629492A0958112C0F40808011A9
:10588000180B8060F807101010D0FFD006211A0105
:1058900021100C1008040B08FF080B0408101D1041
:1058A00060028CC42A920129C0180A04047E0140B7
:1058B0007E42427E022B427EE0100EFC04D4545401
:1058C00054D4047F84C5360414886601300C638286
:1058D0008292AB8482C10224CF4C7E022A016302F1
:1058E0007E4BFF550139D2100A4020D04C4344C8AA
:1058F00010205AF8E468083F404448474070A12906
:10590000A01F20908C8BE888013A08A011200A8003
:1059100040300C034080403F19A0130CC03808E20F
:105920002C203F2028E6A02B7C03E44A09E64940CE
:1059300029751B4020D749E0112E0402013F400188
:1059400032781AF0F82B10FF0552F01B0F04012AD1
:10595000FF052A0F50100F844434048F0484744FC1
:10596000444444C404100849C94D2B2928014B0262
:105970000C80314BC080014BFC84080336C0C03B17
:10598000FF7F944B40FF073B40FFC0013A034A7F33
:10599000700373FCF86CFFFE02018BFFFF0B0268C3
:1059A000036C1F1F04017BFFFF0B02741F038C7F1E
:1059B0003F07FFF8F8F0F0702001E60214801AFFAC
:1059C0000109122C09132D01FF01C0EDFFFFFE0696
:1059D000011AFF01F915391603FF070201D10C1254
:1059E000FFFFFF1409101509151601FF01C1EDFF96
:1059F000FFFF18011914091015391601FF01D2040F
:105A0000120201011AFF01011209122A01FF01D736
:105A10001AFF0101FF01FD05FF1F1F0F0F01EE001F
:04000005080000ED02
:00000001FF
