:020000040800F2
:10000000780B00209101000821050008190500085F
:100010001D050008FD030008B90B000800000000E2
:10002000000000000000000000000000C106000801
:100030000104000800000000A90500085D08000890
:10004000AB010008AB010008AB010008AB010008E0
:10005000AB010008AB010008AB010008AB010008D0
:10006000AB010008AB010008AB010008AB010008C0
:10007000AB010008AB010008AB010008AB010008B0
:10008000AB010008AB010008AB010008AB010008A0
:10009000AB010008AB010008AB010008AB01000890
:1000A000AB010008AB010008AB010008AB01000880
:1000B000AB010008AB010008AB010008AB01000870
:1000C000AB010008AB010008AB010008AB01000860
:1000D000AB010008C1080008E9090008AB010008ED
:1000E000AB010008AB010008AB01000800F002F80A
:1000F00000F03FF80AA090E8000C82448344AAF183
:100100000107DA4501D100F034F8AFF2090EBAE880
:100110000F0013F0010F18BFFB1A43F0010318473B
:10012000340C0000540C0000103A24BF78C878C189
:10013000FAD8520724BF30C830C144BF04680C60ED
:10014000704700000023002400250026103A28BF35
:1001500078C1FBD8520728BF30C148BF0B60704739
:10016000732900F0E780002070471FB51FBD10B550
:1001700010BD00F011F91146FFF7F7FF00F072FD16
:1001800000F02FF903B4FFF7F2FF03BC00F016FDF7
:100190000948804709480047FEE7FEE7FEE7FEE71B
:1001A000FEE7FEE7FEE7FEE7FEE7FEE70448054957
:1001B000054A064B7047000061080008ED00000882
:1001C00078050020780B00207807002078070020B1
:1001D000704700000FB4044910B503AA029800F05C
:1001E000ADF810BC5DF814FB440000202DE9F0418F
:1001F0000E460446002020622046E168884730B35E
:10020000252805D0D4E901219047206A401CF2E757
:10021000E168204600278847050018D0A5F1410075
:10022000192802D820354FF4006732462946204667
:100230002760FFF795FF40B1012804D0F61D26F096
:1002400007060836D8E7361DD6E72846DAE7206ADB
:10025000BDE8F08170B50C460546012A05D0287826
:10026000800600D5EA69002302E0012305E05B1C5B
:10027000934202D2E05C0028F9D1A869E618C01ABE
:10028000A861286A184428622846AFF3008004E079
:10029000D5E9012114F8010B9047B442F8D3284660
:1002A000AFF3008070BD30B505460B462A4613F803
:1002B000014B12F8010B08B1A042F8D01CB1002884
:1002C00002D06D1CF1E7284630BD10B5431C02E09A
:1002D00010F8011B71B18107FAD14FF0013202C849
:1002E0008C1A8C4314EAC211F9D0C01A0A0603D042
:1002F000C01E10BDC01A10BD0A0401D0801E10BD62
:100300000902FCD0401E10BD70477047704770470F
:1003100010B5436913B1AFF3008001E0FFF79AFF16
:10032000012010BD127800F124010A7000224A70E9
:100330000122EDE711684FF0FF32E9E7074B70B596
:100340000D467B4400F011F80446284600F020F8E2
:1003500010B14FF0FF3070BD204670BD03090000A2
:1003600001694A1C02610878704700B58FB0CDE979
:1003700001310021059105497944CDE90310114669
:100380006846FFF733FF0FB000BD0000E5FFFFFF39
:10039000007B00F080007047754600F02BF8AE46F9
:1003A00005006946534620F00700854618B020B581
:1003B000FFF7FCFEBDE820404FF000064FF00007BD
:1003C0004FF000084FF0000B21F00701AC46ACE8FD
:1003D000C009ACE8C009ACE8C009ACE8C0098D466A
:1003E000704710B50446AFF300802046BDE81040CA
:1003F000FFF7C8BE004870471405002000BFFEE7A5
:1004000070472DE9F0410246002500260020002318
:100410000024002791F803C00CF00F0591F803C0E9
:100420000CF0100CBCF1000F03D091F802C04CEAA4
:10043000050591F800C0BCF1000F31D01468002010
:100440002BE04FF0010C0CFA00F3B1F800C00CEAFD
:1004500003069E4220D183004FF00F0C0CFA03F7E5
:10046000BC4305FA03FC4CEA040491F803C0BCF158
:10047000280F06D14FF0010C0CFA00FCC2F814C092
:100480000AE091F803C0BCF1480F05D14FF0010C10
:100490000CFA00FCC2F810C0401C0828D1D314602C
:1004A000B1F800C0BCF1FF0F34DD546800202EE02D
:1004B00000F1080C4FF0010808FA0CF3B1F800C085
:1004C0000CEA03069E4221D183004FF00F0C0CFA78
:1004D00003F7BC4305FA03FC4CEA040491F803C09B
:1004E000BCF1280F05D100F1080C08FA0CF8C2F88D
:1004F000148091F803C0BCF1480F07D100F1080C3B
:100500004FF0010808FA0CF8C2F81080401C0828C7
:10051000CED35460BDE8F08100BFFEE700BFFEE728
:100520007047000070B5002100230F22C47804B387
:10053000154C246804F4E064C4F5E064210AC1F1B8
:100540000403CA40447804FA03F184781440214338
:1005500009010E4C0678A155047804F01F0501240A
:10056000AC4005786D11AD0005F1E025C5F80041FE
:1005700009E0047804F01F050124AC40044D06781E
:10058000761145F8264070BD0CED00E000E400E077
:1005900080E100E002490143024A11607047000017
:1005A0000000FA050CED00E07047000029B1064A92
:1005B000D2690243044BDA6104E0034AD269824300
:1005C000014BDA61704700000010024029B1064A71
:1005D00092690243044B9A6104E0034A92698243A0
:1005E000014B9A61704700000010024030B50021B5
:1005F0000022002400232D4D6D6805F00C0121B16F
:10060000042905D0082923D105E0294D056022E001
:10061000274D05601FE0254D6D6805F47012234DD0
:100620006D6805F48034022505EB92421CB9214D1A
:10063000554305600BE01D4D6D6805F400351DB197
:100640001C4D5543056002E0194D5543056002E01D
:10065000174D056000BF00BF144D6D6805F0F00137
:100660000909154D6B5C0568DD4045600F4D6D68EF
:1006700005F4E061090A104D6B5C4568DD4085605A
:100680000A4D6D6805F46051C90A0B4D6B5C4568F5
:10069000DD40C560054D6D6805F44041890B074D8F
:1006A0006B5CC568B5FBF3F5056130BD0010024019
:1006B00000127A0000093D00000000201000002018
:1006C0007047000070B51948FFF7FFFDC5B221E083
:1006D000174800210160416000201649086000248D
:1006E00005E01249085D00F0CDFA601CC4B2AC42CE
:1006F000F7DB4FF47A7000F081FA0FA0FFF76AFD84
:100700000B4910A0FFF766FD0FA10948FFF7CBFDCD
:1007100000B100E0DCE700BF4FF47A7000F06EFA41
:100720004FF47A7000F06AFA70BD000035000020C6
:100730004C0000203C0000206A696573686F756496
:10074000616F3A0025730A004F4B000010B500F0AE
:1007500001F810BD0CB500200190009033480068EE
:1007600040F480303149086000BF3048006800F430
:10077000003000900198401C0190009818B9019831
:10078000B0F5A06FF1D12948006800F4003010B135
:100790000120009001E0002000900098012843D142
:1007A0002348006840F010002149086008460068AE
:1007B00020F0030008600846006840F0020008606E
:1007C0001A48406819494860084640684860084629
:1007D000406840F4806048600846406820F47C101F
:1007E00048600846406840F4E810486008460068E1
:1007F00040F08070086000BF0C48006800F0007096
:100800000028F9D00948406820F0030007494860F3
:100810000846406840F00200486000BF0348406856
:1008200000F00C000828F9D10CBD000000100240B7
:1008300000200240042808D14FF0E021096941F06E
:1008400004014FF0E022116107E04FF0E021096957
:1008500021F004014FF0E022116170477047000061
:1008600010B51348006840F00100114908600846BF
:100870004068104908400E494860084600680E4923
:1008800008400B4908600846006820F48020086092
:100890000846406820F4FE0048604FF41F0088605E
:1008A000FFF754FF4FF000600449086010BD0000DE
:1008B000001002400000FFF8FFFFF6FE08ED00E028
:1008C0001D49098801F0200111B31B49091D098840
:1008D000C8B21A49098801F40041C9B91749098801
:1008E00001F4804161B10A2803D00021134A11802C
:1008F00020E01249098841F40041104A118019E0B2
:100900000D2806D10D49098841F480410B4A118018
:1009100010E00A490988C1F30D01094A50540749FA
:100920000988491C054A118011460988C72901DD3B
:10093000002111807047000000380140480000206D
:100940004C04002000B587B001210420FFF73EFED3
:1009500001214804FFF72AFE0420ADF818001820F2
:100960008DF81B0003208DF81A0006A91C48FFF71C
:1009700048FD0820ADF8180004208DF81B0006A9DA
:100980001748FFF73EFD4FF4E13002900020ADF82C
:100990000C00ADF80E00ADF81000ADF814000C20FE
:1009A000ADF8120002A90F4800F09AF801210D4895
:1009B00000F058F8012240F225510A4800F06BF887
:1009C00026208DF8040000208DF805008DF8060023
:1009D00001208DF8070001A8FFF7A4FD07B000BDB6
:1009E000000801400044004010B50F48008800F0A6
:1009F000200090B10C48001D0088C4B20B4801686B
:100A00000068401C094A10600948445410460068B8
:100A1000082802D900201146086040F225510248FA
:100A200000F011F810BD0000004400403C00002020
:100A30004C00002001F40072B2F5007F00D100BF2D
:100A4000CA430280704710B50022002340F66A14A2
:100A5000A14200D100BF0A1201249440A3B2DC439A
:100A6000048010BD21B1828942F40052828104E0E9
:100A700082894DF6FF731A4082817047024600203A
:100A8000B1F5007F00D100BF13880B400BB10120EE
:100A900000E000207047F0B5034600240026002542
:100AA000002040F66A17B94200D100BF1846C1F3D2
:100AB000421401F01F06012707FA06F5012C01D1A7
:100AC0000C3004E0022C01D1103000E014301AB1D7
:100AD00007682F43076002E00768AF430760F0BD77
:100AE0002DE9F04786B005460E460024A24600BF19
:100AF000A1460027B08900B100BF2F462C8A4CF6D2
:100B0000FF700440F08804432C82AC894EF6F31049
:100B10000440B08831890843718908430443AC819B
:100B2000AC8A4FF6FF400440B0890443AC8201A870
:100B3000FFF75CFD1F48874202D1DDF810A001E0FD
:100B4000DDF80CA0A88900F4004040B10AEBCA000F
:100B500000EB0A1031684900B0FBF1F807E00AEB3E
:100B6000CA0000EB0A1031688900B0FBF1F864207C
:100B7000B8FBF0F004012009642101FB1089A88969
:100B800000F4004040B1322000EBC900B0FBF1F0AE
:100B900000F00700044308E0322000EB0910642154
:100BA000B0FBF1F000F00F0004432C8106B0BDE86B
:100BB000F08700000038014000BFFEE700BF70472B
:100BC00010B504466FF00400FFF734FEE11704EBA4
:100BD0005171C1F3C701074A11701046007800EB4C
:100BE0004001C1EBC0104FF6FF7101EAC00002499D
:100BF000088010BD40000020420000200146114A3C
:100C000012884A434FF0E0235A6100229A611A4643
:100C1000126942F001021A6100BF4FF0E022106930
:100C200000F001021AB100F48032002AF5D04FF032
:100C3000E022126922F001024FF0E0231A61002243
:100C40009A6170474200002000BF054A128802F0F6
:100C50004002002AF9D0C2B2014B1B1D1A80704716
:100C6000003801404FF4A060FFF794FC4820FFF7E4
:100C7000A7FF00F01BF8FFF765FE01E0FFF722FD7C
:100C8000FCE7000010B5044640210748FFF7D2FEFC
:100C90000548001D048000BF40210348FFF7EEFE19
:100CA0000028F9D010BD00000044004000B587B016
:100CB00001210420FFF78AFC01218803FFF786FC4D
:100CC0004FF40070ADF8180018208DF81B000320B9
:100CD0008DF81A0006A91D48FFF793FB4FF48060BA
:100CE000ADF8180004208DF81B0006A91748FFF77F
:100CF00088FB4FF4E13002900020ADF80C00ADF815
:100D00000E00ADF81000ADF814000C20ADF8120084
:100D100002A90F48FFF7E4FE01210D48FFF7A2FEEC
:100D2000012240F225510A48FFF7B5FE25208DF833
:100D3000040002208DF805008DF8060001208DF8D2
:100D4000070001A8FFF7EEFB07B000BD0008014057
:100D500000380140740D0008000000204C00000025
:100D600028010008C00D00084C0000202C0B0000DA
:100D70004401000800000000010203040102030412
:100D8000060708090204060841542B43574A4150FC
:100D90005F4445463D2235313133222C227A786337
:100DA000353131353131220A0041540A000000004A
:100DB0000000000000000000000000000000000033
:04000005080000ED02
:00000001FF
