:020000040800F2
:100000007806002089010008F5040008ED040008C6
:10001000F1040008430200082D0900080000000058
:100020000000000000000000000000005D05000866
:100030004702000800000000F704000895060008C9
:10004000A3010008A3010008A3010008A301000800
:10005000A3010008A3010008A3010008A3010008F0
:10006000A3010008A3010008A3010008A3010008E0
:10007000A3010008A3010008A3010008A3010008D0
:10008000A3010008A3010008A3010008A3010008C0
:10009000A3010008A3010008A3010008A3010008B0
:1000A000A3010008A3010008A3010008A3010008A0
:1000B000A3010008A3010008A3010008A301000890
:1000C000A3010008A3010008A3010008A301000880
:1000D000A3010008A3010008A3010008A301000870
:1000E000A3010008A3010008A301000800F002F822
:1000F00000F03AF80AA090E8000C82448344AAF188
:100100000107DA4501D100F02FF8AFF2090EBAE885
:100110000F0013F0010F18BFFB1A43F0010318473B
:10012000F8090000180A0000103A24BF78C878C106
:10013000FAD8520724BF30C830C144BF04680C60ED
:10014000704700000023002400250026103A28BF35
:1001500078C1FBD8520728BF30C148BF0B60704739
:100160001FB51FBD10B510BD00F036F81146FFF7E2
:10017000F7FF00F03FFC00F054F803B4FFF7F2FF84
:1001800003BC00F057F800000948804709480047C1
:10019000FEE7FEE7FEE7FEE7FEE7FEE7FEE7FEE737
:1001A000FEE7FEE704480549054A064B7047000094
:1001B00099060008ED00000878000020780600206D
:1001C00078020020780200207047704770470000D6
:1001D00000487047180000207546FFF7F9FFAE464B
:1001E00005006946534620F00700854618B020B543
:1001F000FFF7D8FFBDE820404FF000064FF00007A2
:100200004FF000084FF0000B21F00701AC46ACE8BE
:10021000C009ACE8C009ACE8C009ACE8C0098D462B
:10022000704710B50446AFF300802046BDE810408B
:10023000FFF7A3BF01491820ABBEFEE7260002006E
:10024000704700BFFEE7704730B589B005460C46E1
:100250000121082000F060F90121042000F04CF990
:100260000121084600F058F90121284800F0E0F883
:100270004FF4D870ADF8200010208DF82300022034
:100280008DF8220008A9224800F046F84FF41070BB
:10029000ADF8200018208DF8230003208DF82200EF
:1002A00008A91B4800F038F80020ADF81A00ADF896
:1002B0001600ADF81850ADF8144005A9154800F027
:1002C000CDFA6020ADF804004FF4FA70ADF80A00E2
:1002D0000020ADF80C000120ADF8060001A90D4882
:1002E00000F032FA01A90B4800F07AFA002109481F
:1002F00000F002FA0121074800F00AFA012105483E
:1003000000F012FA00F0A0F909B030BD0001300091
:10031000000C0140000800402DE9F0410246002594
:100320000026002000230024002791F803C00CF0D1
:100330000F0591F803C00CF0100CBCF1000F03D0B6
:1003400091F802C04CEA050591F800C0BCF1000F1D
:1003500031D0146800202BE04FF0010C0CFA00F3B0
:10036000B1F800C00CEA03069E4220D183004FF092
:100370000F0C0CFA03F7BC4305FA03FC4CEA040427
:1003800091F803C0BCF1280F06D14FF0010C0CFA14
:1003900000FCC2F814C00AE091F803C0BCF1480F99
:1003A00005D14FF0010C0CFA00FCC2F810C0401C43
:1003B0000828D1D31460B1F800C0BCF1FF0F34DDC0
:1003C000546800202EE000F1080C4FF0010808FAF4
:1003D0000CF3B1F800C00CEA03069E4221D1830061
:1003E0004FF00F0C0CFA03F7BC4305FA03FC4CEA80
:1003F000040491F803C0BCF1280F05D100F1080CEA
:1004000008FA0CF8C2F8148091F803C0BCF1480F48
:1004100007D100F1080C4FF0010808FA0CF8C2F8F7
:100420001080401C0828CED35460BDE8F081000045
:10043000F0B50A46002300240021002500F0004604
:10044000B6F1004F02D11D4EF16901E01B4E7168FB
:10045000C0F3034583B200F44016B6F5401F08D13F
:1004600021F07061154E766826F07066134F7E603D
:1004700012E000F48016B6F5801F06D1032606FAB6
:1004800005F4A14341F0706106E0460D360103FA20
:1004900006F6B14341F0706122B1460D360103FA10
:1004A00006F6314300F00046B6F1004F02D1034E8C
:1004B000F16101E0014E7160F0BD000000000140FB
:1004C00000B52020084908601020091D08600001BF
:1004D000091F08608020091D08604FF4AF710846AD
:1004E00000F034F800BD0000100C014000BFFEE732
:1004F00000BFFEE77047704729B1064AD269024340
:10050000044BDA6104E0034AD2698243014BDA61A9
:10051000704700000010024029B1064A9269024368
:10052000044B9A6104E0034A92698243014B9A6149
:100530007047000000100240034A126891B201F4B3
:10054000E06108127047000008080140024A11806B
:10055000014A0C321080704734080040704710B5D3
:1005600000F002F810BD00000CB5002001900090D2
:100570003348006840F480303149086000BF30489B
:10058000006800F4003000900198401C0190009831
:1005900018B90198B0F5A06FF1D12948006800F4AE
:1005A000003010B10120009001E000200090009880
:1005B000012843D12348006840F010002149086019
:1005C0000846006820F0030008600846006840F014
:1005D000020008601A4840681949486008464068A7
:1005E00048600846406840F48060486008464068BB
:1005F00020F47C1048600846406840F4E8104860E9
:100600000846006840F08070086000BF0C48006831
:1006100000F000700028F9D00948406820F003007D
:10062000074948600846406840F00200486000BF43
:100630000348406800F00C000828F9D10CBD000008
:10064000001002400020024000B52020064908604A
:100650001020086000010860802008600021084622
:10066000FFF774FF00BD0000140C0140042808D1FE
:100670004FF0E021096941F004014FF0E0221161DF
:1006800007E04FF0E021096921F004014FF0E0227A
:10069000116170477047000010B51348006840F0C2
:1006A00001001149086008464068104908400E4999
:1006B0004860084600680E4908400B490860084633
:1006C000006820F4802008600846406820F4FE009E
:1006D00048604FF41F008860FFF741FF4FF0006053
:1006E0000449086010BD0000001002400000FFF83F
:1006F000FFFFF6FE08ED00E021B1028842F0800223
:10070000028004E002884FF67F731A40028070472F
:1007100021B1028842F00102028004E002884FF613
:10072000FE731A400280704731B1B0F8442042F4A1
:100730000042A0F8442005E0B0F84420C2F30E02C5
:10074000A0F844207047000070B500240022002368
:10075000058C4FF6FE7635400584028C8388048B29
:100760004FF68F752C40B51E2C400D882C43751EFE
:100770002A400D892A434D882A43144DA8420BD0A4
:10078000134DA84208D0134DA84205D0124DA842DF
:1007900002D0124DA84213D14FF6F7752A404D8969
:1007A0002A434FF6FB752A408D882A434FF6FF6592
:1007B0002B404FF6FF552B408D892B43CD892B4382
:1007C00083800483CD888586028470BD002C01401F
:1007D0000034014000400140004401400048014015
:1007E00070B5002200230024058C4EF6FF763540BC
:1007F0000584038C8488828B48F6FF752A404FF667
:10080000FF452A400D884FF6FF7606EA05252A4364
:100810004DF6FF752B400D8906EA05352B434D88B3
:1008200006EA05352B430B4DA84202D00A4DA842DB
:1008300008D14BF6FF752C408D894FF6FF7606EAFE
:1008400085152C4384808283CD88A0F84050038492
:1008500070BD0000002C01400034014000220288DD
:100860001D4B98420ED01D4B98420BD0B0F1804FDB
:1008700008D01B4B984205D01A4B984202D01A4B15
:10088000984204D14FF68F731A404B881A43174B86
:10089000984207D0164B984204D04FF6FF431A40B7
:1008A000CB881A4302808B8883850B8803850A4B8B
:1008B00098420BD0094B984208D00E4B984205D075
:1008C0000D4B984202D00D4B984201D10B7A038612
:1008D0000123838270470000002C01400034014056
:1008E0000004004000080040000C004000100040E0
:1008F0000014004000400140004401400048014015
:1009000010B503460C462020074908601020091F37
:100910000860000108608020091D08602146184613
:10092000FFF714FE10BD0000140C014000BFFEE7ED
:1009300008B501210420FFF7EFFD4FF47060ADF81A
:10094000000004208DF8030002208DF802006946A3
:100950000548FFF7E1FC4FF48050ADF80000694610
:100960000148FFF7D9FC08BD0008014010B5044656
:100970006FF00400FFF77AFEE11704EB5171C1F349
:10098000C701074A11701046007800EB4001C1EB27
:10099000C0104FF6FF7101EAC0000249088010BD87
:1009A00012000020140000200146114A12884A4318
:1009B0004FF0E0235A6100229A611A46126942F010
:1009C00001021A6100BF4FF0E022106900F001023D
:1009D0001AB100F48032002AF5D04FF0E0221269FB
:1009E00022F001024FF0E0231A6100229A61704761
:1009F000140000204820FFF7B9FFFFF799FF4721B7
:100A000040F2E730FFF720FC01E000F001F8FCE7DE
:100A100010B5FFF791FD36490870084600780728A1
:100A20000DD100F069F84FF42F70FFF7BDFF00BF44
:100A3000FFF782FD0128FBD1FFF706FE57E02C48A7
:100A40000078C8B92B480078012805D14FF41671F9
:100A50009620FFF77BFD4AE026480078042804D161
:100A600096218800FFF772FD41E0224800780228B5
:100A70003DD1FFF725FD3AE01D480078012809D156
:100A800040F226214FF4AF70FFF760FD01201949B5
:100A900008702CE016480078042809D14FF4AF7193
:100AA00040F22620FFF752FD0420124908701EE094
:100AB0000F480078062806D14FF4AF714FF4E1706B
:100AC000FFF744FD13E00A480078032806D14FF4ED
:100AD000E1714FF4AF70FFF739FD08E0044800788A
:100AE000022804D1FFF7ECFC01200249087010BD78
:100AF000010000200000002010B5FFF7E1FC642099
:100B0000FFF752FFFFF7A0FD6420FFF74DFF96218E
:100B10000846FFF7F5FE10BD380B00080000002066
:100B20001800000028010008500B000818000020E1
:100B30006006000044010008000000000000000002
:100B40000000000002040608000000000000000091
:04000005080000ED02
:00000001FF
